:1020000000800020D1940000BB940000BB9400002D
:1020100000000000000000000000000000000000C0
:10202000000000000000000000000000BB94000061
:102030000000000000000000BB9400002595000097
:10204000BB940000BB940000BB940000BB94000054
:10205000BB940000BB940000BB940000BD94000042
:10206000BB940000BB940000BB940000BB94000034
:10207000BB940000BB940000BD280000BB9400008E
:10208000BB940000BB940000BB940000BB94000014
:1020900000000000BB940000BB940000BB94000053
:1020A000BB940000BB940000BB940000BB940000F4
:1020B0000000000010B5064C2378002B07D1054B1B
:1020C000002B02D0044800E000BF0123237010BDA4
:1020D00070020020000000008CC30000044B10B50B
:1020E000002B03D00349044800E000BF10BDC046E8
:1020F00000000000740200208CC3000010B5040032
:10210000103007F08EFE200010BD000070B5054DA8
:10211000054C0C3D20000C3C06F049FFAC42F9D1C7
:1021200070BDC0463C030020CC03002070B5054DB7
:10213000054C0C3D20000C3C06F039FFAC42F9D1B7
:1021400070BDC046A00200203003002070B504001E
:1021500005684668AE4204D0280006F028FF103516
:10216000F8E72068002801D007F0D6FA200070BDFB
:1021700030B5104B85B05B5C04000D00002B17D010
:102180000D4901A806F062FF0C2169430B4B01A821
:10219000C91807F06FF80A4907F079F8210007F02D
:1021A00069F80100074806F0ABFE01A806F0FFFE43
:1021B00005B030BD0400002058BD00003C030020E5
:1021C000CCB10000E80300207FB5104B05005B5C3C
:1021D0000E001400002B17D00D4901A806F036FFA1
:1021E0000C2171430B4B01A8C91807F043F80A49A9
:1021F00007F04DF8290007F03DF80100200006F037
:102200007FFE01A806F0D3FE7FBDC046040000207B
:1022100058BD00003C030020CCB10000F0B50C001C
:1022200087B0009034492000019207F07FF8051E26
:1022300014D10100200007F08DF8304E0378B3422E
:1022400013D10021200007F085F8A3680578591EF6
:10225000200007F07FF80378AB420ED121000098F0
:1022600006F09AFE009807B0F0BD2900200007F0A4
:1022700071F8234B02789A42E3D0310003A806F0AC
:10228000E5FE03A9200007F097F8070003A806F071
:102290008EFE1B4903A806F0D9FE03A9200007F013
:1022A0008BF8050003A806F082FEAF4205DB20DCB8
:1022B000002FD3D0002D05D1D0E72726002F05D041
:1022C000002D03D0019B002BC8D02726310003A886
:1022D00006F0DBFE210003A806F0CCFF310006F07B
:1022E000E4FF0100200006F04AFF03A806F05FFEAD
:1022F000B4E72226E2E7C0467CAC00008FB60000BF
:1023000017BD000070B50C0086B00600080007F08D
:10231000A2F80021200007F01DF80178684606F0B9
:10232000B4FE1E49684607F001F8051E0FD10100F2
:10233000200007F00FF8017803A806F0A6FE184960
:1023400003A806F0F3FF050003A806F030FE684678
:1023500006F02DFE002D1AD00021200006F0FAFF15
:10236000A3680578591E200006F0F4FF0378AB42FD
:102370000DD1A3680122013B210003A807F040F81A
:1023800003A9200006F015FF03A806F010FE2100A7
:10239000300006F001FE300006B070BD17BD000031
:1023A0008FB6000070B50400C069002801D007F0A6
:1023B000B3F9E5682669AE4209D0E868002801D083
:1023C00007F0AAF9280006F0F2FD1835F3E7E068F7
:1023D000002801D007F0A0F925686668AE4204D055
:1023E000280006F0E4FD0C35F8E72068002801D04D
:1023F00007F092F9200070BD0023F0B53E4D3F4C30
:1024000091B02800237004F0BDFA002809D02800FC
:1024100003F084F801003A4806F0D1FE012323704E
:1024200005E0384D280004F0ADFA0028EFD12378FC
:10243000002B54D0324C200007F00DF8210003A8E7
:1024400006F0ADFE03A906A8FFF75CFF06A9200071
:1024500006F0AFFE06A806F0AAFD03A806F0A7FD49
:102460002100002406A801F04BF82748009423001F
:10247000264A06A9006802F02DFE244D6F682E68DA
:10248000BB1B1B119C421ED22701F11903A806F0A9
:1024900086FE2B6803A8DB19197BFFF769FE03A8EA
:1024A00006F085FD2B6803A8D91906F078FE2B6885
:1024B000174ADF19397B03A8FFF786FE03A806F049
:1024C00076FD0134D9E73400A74204D0200006F09D
:1024D0006EFD1034F8E76E6006A8FFF763FF0A4B45
:1024E00018680368DB699847094800F0D1FA094881
:1024F00000F0CEFA11B0F0BDD40800208C0200200C
:10250000D8030020880800209002002094020020B8
:1025100034040020E8030020F0B5002401256D4EAE
:102520006D4F6E4B87B00295019400936C4A330057
:102530006C49380003F014F86B4B049401936B4B17
:102540000394029400933900694B664A694804F089
:10255000EFF9812100952B00674A8900674800F058
:1025600045FA674F674B029501940093664A330022
:102570005C49380002F0F4FF5B4B04940193634B19
:102580000394029400933900614B564A614804F069
:10259000CFF981212B00604A009589005F4800F047
:1025A00025FA5F495F4806F051FD5F4F5F483900EB
:1025B00006F04CFD5E495F4806F048FD5E495F4805
:1025C00006F044FD5E495F4806F040FD5E495F4805
:1025D00006F03CFD5E495F4806F038FD5E495F4805
:1025E00006F034FD5E495F4806F030FD5E495F4805
:1025F00006F02CFD5E495F4806F028FD5E495F4805
:1026000006F024FD5E495F4806F020FD5E4D5F49FF
:102610002A00200007F0F8FB5D495E4806F016FD31
:1026200039005D4806F012FD5C495D4806F00EFD7C
:102630005C495D4806F00AFD5C495D4806F006FD10
:102640005C495D4806F002FD5C495D4806F0FEFC11
:102650005C495D4806F0FAFC5C495D4806F0F6FC12
:102660005C495D4806F0F2FC5C495D4806F0EEFC12
:102670005C495D4806F0EAFC5C495D4806F0E6FC12
:102680002A005C49200007F0BFFB5B482A00046079
:1026900044608460594907F0B7FB594F3200380055
:1026A00018303861310007F0CEFB3B697C612A00AD
:1026B0001C705449380007F0A7FB534C3100200030
:1026C00006F0C4FC2A005149200007F09DFB07B02A
:1026D000F0BDC0467CAC0000540F0020D0A7000025
:1026E000520D0020020200007AAC0000E5A70000B5
:1026F000800F00208808002084060020E8030020C6
:10270000240B0020EEA700002009002006A80000EE
:10271000500B0020D4080020800400203404002046
:1027200012A80000A00200201AA80000AC0200209D
:102730001EA80000B802002027A80000C402002044
:1027400031A80000D00200203AA80000DC020020DE
:1027500040A80000E80200204CA80000F40200207D
:102760005DA800000003002063A800000C03002007
:102770006CA800001803002071A8000024030020AA
:102780007AA8000030030020000000202D21000066
:1027900083A800003C0300204803002087A8000015
:1027A000540300208AA80000600300208DA80000C8
:1027B0006C03002091A800007803002095A8000079
:1027C0008403002099A80000900300209CA800002A
:1027D0009C030020A0A80000A8030020A4A80000DB
:1027E000B403002061B20000C0030020A8A80000CC
:1027F000CC0300200D210000940200204D21000098
:1028000014000020FD200000D8030020AF8F00003E
:102810007FB5E1261F4D76023100280004F0FEFE50
:102820001D4C3100200006F069F829001B4800F01B
:102830005FFA29001A4804F05BF92100194800F0FA
:1028400057FA2100184804F053F9482006F060FFB9
:102850000400202104F0DEF9144D58202C6006F00D
:1028600057FF0400296801F0CDFE114B11491C608F
:10287000114B01A8E36006F0E9FB062101A8FFF770
:1028800077FC01A806F093FB0121202007F096F9C0
:102890007FBDC0468419002084110020340400202C
:1028A000D4080020E803002088080020E40300206A
:1028B00090020020ACA800001400002010B50248CF
:1028C00006F08FF910BDC0468411002013B51249DF
:1028D000124804F04BFD1249124804F047FD12491A
:1028E000124804F043FD1249124804F03FFD12491A
:1028F000124804F03BFD124C1249200004F036FD52
:1029000001230193023300930D220B3321000E4863
:1029100006F0E0F813BDC04600080042C8130020CE
:10292000000C0042D013002000100042D8130020F9
:1029300000140042E013002000180042E8130020B9
:10294000F0130020001C00428411002010B5030089
:10295000806B002808D0586A002806D003689B685E
:102960009847002800DD013810BD186AF6E770B5F9
:102970000024036A0500A3420AD0FFF7E7FFAB1D5E
:102980004A35DB8F2A889B1A042B00DD1C1F041993
:10299000200070BD030070B54A331D88836B0400AE
:1029A000002B08D0FFF7D2FFA36B834200DAA063AD
:1029B000A36B181A2D18280070BD000010B5040074
:1029C00000230834E387403423806380841D01643E
:1029D000994201D09A4201D1E38710BD024B9A423D
:1029E00000D91A00E287F8E7FE7F0000F8B50D0075
:1029F000110006AA1678002204004260FA20800026
:102A0000A060134820270830206020003C3022645A
:102A10006264A264626222626263A26302704770AF
:102A2000237423003033A262A67462741A70914238
:102A300002D02A00072D02D82100082213312000DD
:102A4000FFF7BCFF00232000E361E362F8BDC0464E
:102A500040AD00000630C38F0020013B994201DAEF
:102A6000013188B27047F8B506004A363588002D26
:102A70000BD0070048373988036C013D5C5CFFF7D9
:102A8000E9FF388020003580F8BD01204042FBE797
:102A9000F7B5036A0400002B10D13E4C200006F06D
:102AA0001DFA3D49200006F021FA200006F016FA32
:102AB0003A4B18680368DB689847F7BD384E37789B
:102AC000FFB2002FF9D101233370037C012B02D018
:102AD000030030331F702000FFF738FF23004A3314
:102AE00001931B88A56B002B10D1002D05D0A842A7
:102AF00009DBA0633034237005E0230030331D7000
:102B000006F024FDE06200233370D6E7002D27D0C5
:102B1000002812DD0500984200DD1D00002720007E
:102B2000FFF7A1FFC1B2002903D0206A03681B6828
:102B300098470137BD42F2DC0127250030352B785C
:102B4000002BE0D0002FDED1019B1B88002BDAD1B7
:102B50002000FFF7FBFEA36B9842D4DB2F70D2E777
:102B600006F0F4FCE36AE269C31A934201D23570BD
:102B7000A3E7E0622000FFF776FFC1B2002903D08F
:102B8000206A03681B689847019B1B88002BBAD1F9
:102B9000B0E7C0461018002034AC000054000020FC
:102BA000F813002010B5036A0400002B01D10020A7
:102BB00010BDFFF76DFF230030331B78002BF6D1DB
:102BC0002000FFF7D4FEF3E710B504000020236ACD
:102BD000834206D02000FFF75BFF206A03681B6971
:102BE000984710BD10B5036A0400002B06D0FFF70C
:102BF0004FFF206A03685B69984710BD012040427F
:102C0000FBE710B5036A0400002B06D0FFF740FF76
:102C1000206A03689B69984710BD01204042FBE78A
:102C200010B5036A0400002B08D02000FFF7B2FEA5
:102C3000002803D02000FFF72BFFF6E710BD70B58A
:102C400005000835EB8F026C0400D154E98FFFF7C3
:102C500001FF4A34E88723880133238070BDF8B52B
:102C6000831DDD8F44331B880600ED1A954200D981
:102C700015000C004F19BC4205D021783000FFF739
:102C8000DEFF0134F7E72800F8BD0000020010B5B0
:102C9000831D4A32DB8F128804009B1A032B08DC49
:102CA000032205492000FFF7DAFF01233C3423709B
:102CB00010BD04220149F5E774AC000078AC0000B7
:102CC0000200002310B54A32118804000830C3877F
:102CD000403003801380994204D00E3A13702000D4
:102CE000FFF7D4FF2200002330321370637410BD4D
:102CF00010B504004162016241630B680800DB68A3
:102D000098470A2006F052FC606A03689B6898475F
:102D1000A36B834200DAA0630022A36BA262022BA2
:102D200017DCA2630E49206A06F0F4F80D49206A08
:102D300006F0F0F80C49206A06F0ECF8206A06F07C
:102D4000CDF8206A0368DB689847084806F02EFC37
:102D5000E8E7013BA363E2612000FFF7B1FF10BD8C
:102D60007DAC00009BAC0000F1AC000088130000BB
:102D7000020010B54A32831D1488DA8F0023944272
:102D800002D2FFF75CFF0123180010BDF0B5036A03
:102D900085B004000D001600002B00D19FE0FFF766
:102DA00077FE237C002B0CD1AF19BD421FD023002E
:102DB00029783D331970236820001B689847013536
:102DC000F3E72000FFF7E6FD2300303302931B7882
:102DD000002B0FD0002824D023003C331B78002B7D
:102DE00002D12000FFF752FFA37C6374002630005D
:102DF00005B0F0BD002814D0637C002B11D02368EF
:102E000020009B689847B0420BDA23003C331B78C4
:102E1000002B02D12000FFF739FF0123029A137023
:102E2000E4E723004A331B88002B27D00023370018
:102E30000193002F40D02200A31D4A321288DB8F5D
:102E40009B1A3A1D934205DA0027032B34DD1F1F1E
:102E5000002F31D0230000223C331A70EB1903936A
:102E6000013B1A7823003D331A70039BAB4223D0F9
:102E700029782000FFF77CFF0135F6E72000FFF7F7
:102E800065FD0190B04200D90196019B3700002BEF
:102E9000CFD0206A019A036829005B689847019B9C
:102EA000ED186B1E1A7823003D331A700022013B87
:102EB0001A70019BF71ABCE7019BDF19BE420AD9C1
:102EC00023003C331B78002B02D12000FFF7DEFEED
:102ED0000123029A1370A37C3E00637487E71E00EF
:102EE00085E7F0B50025036A85B004000E00AB420B
:102EF00033D02700FFF7CCFD237C3C37AB424BD0CF
:102F00002300303301931B78AB4209D123004A33AD
:102F100002931A88A31D0393DB8F9B1A042B09DCF1
:102F20003B78002B02D12000FFF7B0FEA37C0025E8
:102F3000637412E0002A13D12000FFF707FD002878
:102F40000ED023003D331E70206A310003681B68D9
:102F500098473D700125A37C6374280005B0F0BD3F
:102F6000029AA31DDB8F12889B1A042B0ADD002313
:102F70003B7023003D331E7031002000FFF7F8FE48
:102F80000500EAE73B78002B02D12000FFF77EFE28
:102F90000123019A1370C9E73D702700A51D4A3728
:102FA000EA8F3B889A42E4D1EA8F3B889A42E0D18B
:102FB000012006F0FBFA2000FFF76AFDF4E710B5E8
:102FC000002801D006F0A8FB10BD0000F0B5436852
:102FD000046816001A1B3B4B9210534387B0050040
:102FE00003910122002B00D01A009A180192019936
:102FF000039A141B344A8B425CD891425AD8002958
:1030000059D10291029B1819002802D0310006F014
:10301000C6F82F68029E3C00039B9C4208D0002EFD
:1030200003D02100300006F0BAF80C340C36F3E778
:103030000C22E41B254BA4085C43A400A4085443C1
:103040003F19A418029A059312193C0004926A6869
:10305000049E0392039BA34208D0002E03D02100BC
:10306000300006F09CF80C340C36F3E7039B2E6816
:10307000DC1B0C27059BA40863439C00A4087C432D
:10308000049B6F681C19B74204D0300005F08FFF15
:103090000C36F8E72868002801D006F03DFB029BBB
:1030A000019A2B600C235343029A6C60D318AB60D7
:1030B00007B0F0BD01920C20019B584306F028FB9D
:1030C00002909FE7ABAAAAAA55555515ABAAAA2A02
:1030D00070B504000D00AC4207D0E068FFF76FFF49
:1030E000200005F064FF1834F5E770BD70B50400EA
:1030F0000D0005F051FF00236361E3602361EA687E
:103100002000E260EB602A69236922612B616A6911
:10311000636962616B6170BD70B515000C1A04D0F3
:1031200001002200280007F0A0F8281970BD4B68A4
:103130000A6870B59D1A002304000E000360436006
:1031400083602A009D4203D0280006F0E1FA0200C5
:103150005519A5602260626003CEFFF7DDFF606055
:10316000200070BD70B505000C0006F018F82800AE
:1031700021000C300C31FFF7DAFF280070BD000091
:10318000F0B54368046816001A1B394BD21053433C
:1031900087B0050003910122002B00D01A009A1875
:1031A00001920199039A141B324A8B4257D89142DB
:1031B00055D8002954D10291029B1819002802D039
:1031C0003100FFF793FF2F68029E3C00039B9C4257
:1031D00008D0002E03D021003000FFF7C3FF1834C1
:1031E0001836F3E71822E41B234BE4085C43E400A1
:1031F000E40854433F19A418029A059312193C009D
:1032000004926A68049E0392039BA34208D0002E96
:1032100003D021003000FFF7A5FF18341836F3E77C
:10322000039B2868DF1B059BFF087B43DF001823F7
:10323000FF085F43049B6968DF19FFF749FF2868AF
:10324000002801D006F068FA029B019A2B6018232F
:103250005343029A6F60D318AB6007B0F0BD019280
:103260001820019B584306F053FA0290A4E7C04689
:10327000ABAAAAAAAAAAAA0AABAAAA0AF7B58368FD
:103280004768040001919F4207D0002F01D00B78BE
:103290003B70636801336360F7BD0368FB1A0093FA
:1032A000013302D1164806F0D3FD009B0126002B06
:1032B00003D0009B5E00B3421BD8351E1BD1009B80
:1032C000EB18002B02D0019A12781A702A003900EC
:1032D0002068FFF721FF6168421C3800FFF71CFFE0
:1032E00007002068FFF76BFE2560AD196760A560D9
:1032F000D2E701267642300006F00AFA0500DEE742
:103300007CAD0000F0B5030000240500C66897B04E
:1033100084610C330F00016930000593FFF7D8FE7C
:103320002E61754907A805F091FE22002E21380074
:1033300006F01EF803000290013301D1BB6802932E
:1033400022000024029B390010A806F059F810A9A9
:1033500007A805F02EFF10A805F029FE5B2107A89D
:103360000A940B940C9406F012F85D21060007A84D
:1033700006F03FF80390731C00D192E00300013384
:1033800000D18EE001360300320007A90DA806F037
:1033900037F80194019B039A934200DB6DE0721CA5
:1033A0002C2107A805F0E4FF03000190013301D1AF
:1033B000039B019310AC019B320007A9200006F08B
:1033C0001FF821000DA805F0F4FE200005F0EFFD28
:1033D0002D210DA805F0DBFF0300049001330AD175
:1033E0000DA806F061F8210020700AA8FFF746FF3B
:1033F000019B5E1CCEE7049B00220DA9200005F076
:10340000FFFF200006F050F80600200005F0CFFD79
:10341000049A0F9B01320DA9200005F0F1FF200056
:1034200006F042F80490200005F0C1FD049B9E4286
:1034300003DCFF2E01D8FF2B15D9304910A805F069
:1034400005FE052110A8FEF793FE10A805F0AFFDBC
:103450000DA805F0ACFD0A98FFF7B1FD07A805F02F
:10346000A6FD17B0F0BD10A90AA80E70FFF706FF61
:10347000049B0136B342F6DABAE75B2107A805F0F0
:1034800086FF0022030007A910A805F0B9FF10A9C4
:1034900007A805F08EFE10A805F089FD0DA805F01F
:1034A00086FD07A910A805F07AFE0AA913A8FFF760
:1034B0003EFE28696B69984218D0002802D010A9F6
:1034C000FFF714FE2B6918332B611398FFF777FD74
:1034D00010A805F06CFD029B0A985C1CFFF76FFDBD
:1034E000029BBA68934200D21FE7B7E7010010AA17
:1034F0000598FFF745FEE8E77CAC000064AD0000EE
:103500000023F0B50E0089B08361036043608360DF
:10351000C36003614361C361036243628D68040059
:103520004A4905A805F092FD05A9300005F044FFC1
:10353000039005A805F03BFD039B01335FD0039F7B
:10354000B368013BBB425BDD404905A805F07EFD49
:103550007B1C1A0005A93000029305F01DFF07002F
:1035600005A805F024FD3A4905A805F06FFD029A6B
:1035700005A9300005F010FF019005A805F017FD22
:10358000344905A805F062FD029A05A9300005F04E
:1035900003FF050005A805F00AFD019B013302D0D9
:1035A000019B9F424CDC6B1C01D0AF4238DC7B1C82
:1035B00000D1B7683B00029A310005A805F020FF52
:1035C00005A805F03BFF6068A368984211D0002869
:1035D00002D005A905F0E3FD63680C33636005A81C
:1035E00005F0E5FCACE722216B1C21D1019D0531E2
:1035F0001EE0010005AA2000FFF7E8FCEFE70395B5
:10360000039B0022310005A805F0FAFE05A9200061
:10361000FFF778FE05A805F0CAFC200009B0F0BD50
:10362000019B2221AB4203DC019B22210133DDD12E
:103630006A1C300005F09CFE431CB8D0471CB6E75E
:10364000019BAB42CFDC1D002721F1E726BC000027
:103650008FB6000017BD0000F0B54368056816007E
:103660005B1B85B004000F001B110122002B00D052
:103670001A009A18019201997D1B2F4A8B4254D847
:10368000914252D8002951D10291029B5D19002D1F
:1036900005D03100280005F07FFC337B2B732568B3
:1036A000029E0095009BBB420DD0002E06D0190053
:1036B000300005F074FD009B1B7B3373009B1036BC
:1036C00010330093EEE7009B009F5D1B029B1035BB
:1036D0005B191E0065680393BD420AD0002E05D019
:1036E0003900300005F05BFD3B7B3373103710363B
:1036F000F2E7009B2668ED1A039B67685D19B742E5
:1037000004D0300005F053FC1036F8E7206800289C
:1037100001D006F001F8029B029A2360019B6560CC
:103720001B01D318A36005B0F0BD0192019B1801E5
:1037300005F0EEFF0290A8E7FFFFFF0F70B583686A
:10374000456804000E009D420AD0002D04D02800D8
:1037500005F022FC337B2B7363681033636070BD0C
:103760000A002900FFF778FFF9E70000F0B517001D
:103770001C0002684368234D9B1A9B106B4391B059
:10378000060001919F4239D0002C39D11E4906A86C
:1037900005F05CFC336871680A22C91A8910694314
:1037A00003A805F0A3FC03A906A805F063FD1749CB
:1037B00005F06DFD05000A22390009A805F073FC2B
:1037C00009A9280005F056FD0CAD0100280005F000
:1037D000E6FC0523290001982B73FFF7AFFF2800B3
:1037E00005F0E5FB09A805F0E2FB03A805F0DFFB07
:1037F00006A805F0DCFB200011B0F0BD0124FAE7BB
:103800000024F8E7ABAAAAAA96AD0000B6AD000066
:1038100030B50D001C000AC85B1A0E499B104B43C3
:1038200085B09A4212D9002C12D10B49684605F096
:103830000DFC05236A46280069461373FFF77EFFD7
:10384000684605F0B4FB200005B030BD0124FAE75E
:103850000024F8E7ABAAAAAAC1AD000010B5064C37
:103860002000183005F0A3FB20000C3005F09FFB72
:10387000200005F09CFB10BD1015002070B5054D13
:10388000054C0C3D20000C3C05F091FBAC42F9D1FD
:1038900070BDC046FC1300200415002070B53B49E4
:1038A0003B4805F0D3FB3B493B4805F0CFFB3B4988
:1038B0003B4805F0CBFB3B493B4805F0C7FB3B4988
:1038C0003B4805F0C3FB3B493B4805F0BFFB3B4988
:1038D0003B4805F0BBFB3B493B4805F0B7FB3B4988
:1038E0003B4805F0B3FB3B493B4805F0AFFB3B4988
:1038F0003B4805F0ABFB3B493B4805F0A7FB3B4988
:103900003B4805F0A3FB3B493B4805F09FFB3B4987
:103910003B4805F09BFB3B493B4805F097FB3B4987
:103920003B4805F093FB3B493B4805F08FFB3B4987
:103930003B4805F08BFB3B493B4805F087FB3B4987
:103940003B4805F083FB3B493B4805F07FFB3B4987
:103950003B4805F07BFB3B4D3B492A00002006F02D
:1039600053FA3A4C3A49200005F070FB20003949DF
:103970000C3005F06BFB20003749183005F066FB72
:103980002A003649002006F03FFA70BD65B90000F4
:10399000FC130020DBAD000008140020E0AD0000A7
:1039A00014140020E6AD000020140020EDAD00004E
:1039B0002C140020ECAD000038140020F3AD000002
:1039C00044140020D7B00000501400200AB40000B6
:1039D0005C140020FCAD00006814002007AE00005D
:1039E0007414002011AE0000801400201CAE0000F2
:1039F0008C14002020AE00009814002071B100004B
:103A0000A414002027AE0000B014002097B90000D5
:103A1000BC1400202CAE0000C814002039AE0000F9
:103A2000D414002046AE0000E01400204CAE00008C
:103A3000EC14002058AE0000F814002066AE000020
:103A400004150020000000207D3800001015002023
:103A500077AE000080AE000089AE00005D38000047
:103A600010B5036811005B6A9847012010BD000083
:103A70001FB5064901A805F0E9FA082101A8FEF7DB
:103A800077FB01A805F093FA05B000BDE9B100008D
:103A90001FB5074901A805F0D9FA082101A8FEF7CA
:103AA00067FB01A805F083FA0120404205B000BD84
:103AB00084B1000070B5036886B09D6A9B681600EB
:103AC000040098470168684605F0C0FA23682000A2
:103AD0009B689847016903A805F0B8FA03AB6A46EA
:103AE00031002000A84703A805F061FA684605F0F8
:103AF0005EFA012006B070BDF0B593B00B920B6872
:103B00004A6806000F00934274D0002425000A94EE
:103B1000099408940794069439687B684E4A5B1AA6
:103B20009B1053439C426CD20C2363430FA8C918CB
:103B300005F035FB0FA90CA8FEF7E4FB0FA805F074
:103B400036FA46490CA805F0F1FB002846D1444955
:103B50000CA805F0EBFB002840D142490CA805F069
:103B6000E5FB00283CD140490CA805F0DFFB00280C
:103B700036D13E490CA805F0D9FB002832D13C498A
:103B80000CA805F0D3FB00282CD13A490CA805F06D
:103B9000CDFB002828D138490CA805F0C7FB002828
:103BA00022D136490CA805F0C1FB00281ED13449AA
:103BB0000CA805F0BBFB002818D132490CA805F071
:103BC000B5FB002814D130490CA805F0AFFB002844
:103BD0000ED10CA805F0EBF901349DE70690F8E74B
:103BE0000790F6E70890F4E70990F2E70A90F0E70B
:103BF0000500EEE7012500230A950993089507952E
:103C00000693336830009C699B68984701680CA84C
:103C100005F01CFA336830009B68984701690FA8CB
:103C200005F014FA0A9B0CAA0493099B0B990393C1
:103C3000089B30000293079B05950193069B009318
:103C40000FABA0470FA805F0B2F90CA805F0AFF92B
:103C5000012013B0F0BDC046ABAAAAAA50B1000023
:103C600031B6000057B10000EEB20000F3AD000025
:103C700078B100005FB10000FEB2000069B1000041
:103C800077B100007AB10000DEAE0000F7B51E008B
:103C900003680191DF68330004001500B84700286D
:103CA00006D123682A001F69019933002000B84714
:103CB000FEBD70B505000C0005F071FA280021006A
:103CC0000C300C3105F06BFA280021001830183147
:103CD00005F065FA280021002430243105F05FFA50
:103CE000230030331A782B0030331A70230031331D
:103CF0001A782B0031331A70636B38346B632B00E6
:103D00002278383328001A7070BD00000B003C2167
:103D100010B504005943034BC918FFF7CAFF200030
:103D200010BDC0463415002010B50400243005F045
:103D30003EF92000183005F03AF920000C3005F06B
:103D400036F9200005F033F9200010BD10B5054804
:103D5000FFF7EAFF0448FFF7E7FF0448FFF7E4FF37
:103D600010BDC046AC150020701500203415002091
:103D7000F0B50E000027BBB0039004920593FDB28E
:103D800029000DA8FFF7C2FF1823B16907A85943FE
:103D9000F368591805F003FA29001CA8FFF7B6FFCD
:103DA00007A91CA805F0B4FA041E0BD129002BA802
:103DB000FFF7ACFF07A92EA805F0AAFA04002BA86C
:103DC000FFF7B2FF1CA8FFF7AFFF002C42D02BACCF
:103DD00020002900FFF79AFF676B2000FFF7A4FF80
:103DE000002F27D121490AA805F030F92000290029
:103DF000FFF78CFF21000AA805F03CFA1C4905F0EA
:103E000046FA01001CA805F0CAF905211CA8FEF716
:103E1000AFF91CA805F0CBF82000FFF785FF0AA832
:103E200005F0C5F8022407A805F0C1F80DA8FFF7B2
:103E30007BFF18E00DA920001A9DFFF73AFF0094C0
:103E4000059B049A31000398A8472000FFF76CFFF8
:103E50000124E8E707A805F0AAF801370DA8FFF745
:103E600063FF032F8BD120003BB0F0BD93B1000066
:103E70009DB10000F0B504000E000027BBB0049215
:103E80000593236820001B6A9847B84200DC7FE056
:103E9000FBB203932368FAB21B6821000DA8984770
:103EA0001823B16907A85943F368591805F077F941
:103EB0002368FAB21B6821001CA8984707A91CA810
:103EC00005F026FA051E0DD12368FAB21B68210001
:103ED0002BA8984707A92EA805F01AFA05002BA8C9
:103EE000FFF722FF1CA8FFF71FFF002D48D0236813
:103EF0002BAD28001B68039A210098476F6B2800A0
:103F0000FFF712FF002F2BD122490AA805F09EF8D7
:103F10002368039A1B6821002800984729000AA8F3
:103F200005F0A8F91C4905F0B2F901001CA805F03C
:103F300036F905211CA8FEF71BF91CA805F037F877
:103F40002800FFF7F1FE0AA805F031F8022407A8BF
:103F500005F02DF80DA8FFF7E7FE20003BB0F0BDFF
:103F60000DA928001A9FFFF7A4FE0095059B049A4F
:103F700031002000B84704002800FFF7D5FEE6E72F
:103F800007A805F014F80DA8FFF7CEFE013778E773
:103F90000024E2E793B100009DB10000044B083318
:103FA0000360002303714371837183607047C046CF
:103FB00000B20000F0B504000E0000259BB023689D
:103FC00020001B6A9847A8421DDD2368EAB21B68DF
:103FD00021000BA898475D236B441B78002B0DD064
:103FE0000EA901A8FFF78CFA236832005F6901A9C6
:103FF00001232000B84701A8FEF7D4F90BA8FFF76A
:1040000093FE0135DBE71BB0F0BD0000F0B51C00EE
:10401000A9B02EAB1B780600009330AB1B780F00C5
:1040200003A81100019305F0BAF8210006A805F0D5
:10403000B6F8604C03A8210005F078F900280BD1F0
:10404000059B03A8591E05F085F903782E2B03D094
:10405000594903A805F0EFF8210006A805F066F914
:1040600000280BD1089B06A8591E05F073F90378A8
:104070002E2B03D0504906A805F0DDF8210009A831
:1040800004F0E4FF0025336830001B6A9847A8421B
:1040900000DC83E03368310019A8EAB21B68984756
:1040A000444919A805F042F900283CD043490FA81B
:1040B00004F0CCFF059B0022013B03A90CA805F0EE
:1040C0009FF90CA90FA805F0D5F83D4905F0DFF8D8
:1040D0000400089B0022013B06A912A805F090F9F4
:1040E00012A9200005F0C6F8364905F0D0F815AC45
:1040F0000100200005F053F8062321003800237347
:10410000FFF71CFB200004F052FF12A804F04FFF41
:104110000CA804F04CFF0FA804F049FF19A8FFF702
:1041200003FE0135AFE7019B002BF7D025AB1B78D1
:10413000002B02D0009B002BF0D015AC1F492000B3
:1041400004F084FF03A9200005F094F819A905F0F4
:1041500091F81D4905F09BF806A905F08BF81CA9FC
:1041600005F088F8010009A805F009F8200004F01E
:104170001EFF269B002B03D1144909A805F05BF80C
:1041800009A9200005F00BF806233800210023734D
:10419000FFF7D4FA200004F00AFFBFE709A804F0F3
:1041A00006FF06A804F003FF03A804F000FF29B0EF
:1041B000F0BDC0467CAC00003BB90000AEB10000D1
:1041C000B3B10000C2B1000011B80000CEB10000D0
:1041D000F0B51D00ABB001910400110002A804F07D
:1041E000DEFF290005A804F0DAFF844D02A82900AB
:1041F00005F09CF800280BD1049B02A8591E05F07D
:10420000A9F803782E2B03D07D4902A805F013F8F6
:10421000290005A805F08AF800280BD1079B05A8FE
:10422000591E05F097F803782E2B03D0744905A882
:1042300005F001F8290008A804F008FF2368200011
:104240009B6898470368AB4250D06E490EA804F0B3
:10425000FDFE049B0022013B02A90BA805F0D0F84B
:104260000BA90EA805F006F8674D290005F00FF818
:104270000600079B0022013B05A911A805F0C0F824
:1042800011A9300004F0F6FF290005F000F82368BA
:1042900005009B6820009847816814A804F0D6FEAA
:1042A000012214A917A8FDF7B9FF17A9280004F0E7
:1042B000E1FF1BAD0100280004F071FF0623290077
:1042C00001982B73FFF73AFA280004F070FE17A844
:1042D00004F06DFE14A804F06AFE11A804F067FE55
:1042E0000BA804F064FE0EA804F061FE002623680B
:1042F00020001B6A9847B04274DD2368F2B21B6845
:1043000021001BA898473F490BA804F09FFE02A973
:104310000BA804F0AFFF1BA904F0ACFF3A4D013627
:10432000290004F0B4FF05A904F0A4FF1EA904F0BD
:10433000A1FF290004F0ABFF29AB19780C235943E6
:10434000324BC91804F096FF290004F0A0FF0700C3
:1043500021A90EA804F023FF01220EA911A8FDF740
:104360005DFF11A9380004F085FF290004F08FFFDC
:1043700027AB197804F0A4FF290004F088FF070098
:1043800017AD24A914A804F00AFF012214A92800DB
:10439000FDF744FF2900380004F06CFF010008A875
:1043A00004F0EDFE280004F002FE14A804F0FFFD66
:1043B00011A804F0FCFD0EA804F0F9FD0BA804F010
:1043C000F6FD08A9280004F0EAFE0623290001985A
:1043D0002B73FFF7B3F9280004F0E9FD1BA8FFF7E2
:1043E000A3FC84E708A804F0E2FD05A804F0DFFDC3
:1043F00002A804F0DCFD2BB0F0BDC0467CAC000090
:104400003BB90000E3B1000026BC0000FC13002013
:10441000F8B53C25284C2A000021200005F038FF83
:104420002649200004F012FE2549264804F00EFE1D
:104430002549264804F00AFE2549264804F006FED0
:10444000254B67192A0063630021380005F020FF1F
:1044500038002700214E7837310004F0F7FD310095
:104460001F4804F0F3FD1F4E1F48310004F0EEFD1D
:104470001E491F4804F0EAFD1E4B2A00236738003E
:10448000002105F005FF38001B4904F0DFFD1B4942
:104490001B4804F0DBFD31001A4804F0D7FD1A492F
:1044A0001A4804F0D3FD1A4BAC342360194A1A4958
:1044B000002005F0A9FCF8BD3415002090AE0000E6
:1044C00095AE00004015002098AE00004C1500206D
:1044D000E0AE000058150020F93A00006CA800007A
:1044E0007C150020D4AE00008815002060B00000CC
:1044F00094150020B53A0000D3B00000DCB00000F5
:10450000B8150020C4150020E1B00000D01500202F
:10451000613A0000000000204D3D0000C068704777
:10452000C06870477047704709207047806C10B5AD
:10453000002802D00368DB69984710BD4C307047F3
:10454000004870476DB4000010B50400024904F043
:104550007DFD200010BDC0467CAC00001FB50649A3
:1045600001A804F073FD082101A8FDF701FE01A8D0
:1045700004F01DFD05B000BD17B500001FB50649CC
:1045800001A804F063FD082101A8FDF7F1FD01A8D1
:1045900004F00DFD05B000BD80B4000030B50B681F
:1045A00085B004001B6A08001500984785420ADDA3
:1045B0000A4901A804F04AFD01A80521FDF7D8FD2C
:1045C00001A804F0F4FC3C216943054B2000C91804
:1045D000FFF76FFB200005B030BDC0468BB5000073
:1045E000E815002070B5054D054C3C3D20003C3CD5
:1045F000FFF79AFBAC42F9D170BDC046E815002028
:10460000C8170020F0B5040085B00F00FFF7C6FC06
:104610001B4B00250833236023002000194E28334C
:104620002362E56026616661A6612577657765622C
:1046300031001D70383004F009FD230020004433A0
:104640001D704C30A564310004F000FDAF4208D06D
:104650003B68A7649B6838009847E060200005B07D
:10466000F0BD23001033E360074901A804F0EEFC1D
:1046700001A80521FDF77CFD01A804F098FCEDE7F9
:10468000A8B500007CAC000059B5000070B50C0066
:1046900005001100002B01D0012070BD0122200077
:1046A000FFF764F803000320002BF6D0206804F025
:1046B000FBFE04000128EFD12B682800DB6B984734
:1046C0002000EAE7F0B505000E001F0095B005AC2C
:1046D0001A9920000392FFF7ECFA3B00039A31008D
:1046E00000942800FFF7D2FF05002000FFF71CFB15
:1046F000280015B0F0BD0000F0B50C0017008FB019
:1047000006000023012239002000FFF781F803256D
:10471000002836D0216801A804F041FD01A804F06A
:104720009AFE0025636822689A1A174B9210534329
:10473000013BAB4213D9154904A804F087FC0C21B6
:1047400001356943236804A8591804F093FD01005A
:1047500001A804F05EFD04A804F029FCE2E701A929
:1047600004A8FEF7CDFE33683A005C6904A9012372
:104770003000A047050004A8FDF714FE01A804F0CE
:1047800016FC28000FB0F0BDABAAAAAA26BC0000F8
:10479000F0B505000E001F0095B005AC1A99200079
:1047A0000392FFF786FA3B00039A31000094280039
:1047B000FFF7A2FF05002000FFF7B6FA280015B0AA
:1047C000F0BD0000F0B50D0089B016001C1E19D117
:1047D000022231002800FEF7C9FF032300283FD042
:1047E0000C2738006043224B2968C01804F090FD64
:1047F000002838D028680C3004F056FE431E98413B
:104800001C4B185500240C270E9901A80C3104F0FC
:10481000C6FC194D01A8290004F039FD3900614397
:10482000134BC91804F026FD290004F030FD114B8C
:1048300004AD195D04F044FD0100280004F0AFFC54
:104840000623290030002B73FEF778FF280004F0C0
:10485000AEFB013401A804F0AAFB0D2CD4D1012336
:10486000180009B0F0BD01340D2CBAD10523F7E7CB
:10487000A00200200400002026BC0000F0B50500C6
:104880000E001F0095B005AC1A9920000392FFF7A7
:1048900010FA3B00039A310000942800FFF792FFC2
:1048A00005002000FFF740FA280015B0F0BD000019
:1048B000F0B51F0003689DB09B6B0D00040016004F
:1048C00098470100684604F0C1FB002F30D13B003F
:1048D000012231002800FEF749FF0337002800D1EC
:1048E00097E02968684604F013FD002820D12300D2
:1048F000012244331A702968684604F040FC484994
:1049000015A804F0A3FB296815A804F0B3FC18ADA2
:104910000100280004F043FC0623290030002B731B
:10492000FEF70CFF280004F042FB15A804F03FFB43
:10493000229903A80C3104F032FC3A4D03A8290057
:1049400004F0A5FC0700A06C03689B689847816889
:1049500006A804F07BFB012206A909A8FDF75EFC6E
:1049600009A9380004F086FC290004F090FC070037
:10497000A06C03689B68984701680CA804F066FB6C
:104980000CA9380004F076FC290004F080FC070034
:10499000A06C03689B68984741680FA804F056FB19
:1049A0000FA9380004F066FC290004F070FC040034
:1049B000694612A804F0F3FB012212A915A8FDF71D
:1049C0002DFC15A9200004F055FC18AC01002000B6
:1049D00004F0E5FB0623210030002373FEF7AEFE52
:1049E000200004F0E4FA15A804F0E1FA12A804F09B
:1049F000DEFA0FA804F0DBFA0CA804F0D8FA09A834
:104A000004F0D5FA06A804F0D2FA03A804F0CFFA0D
:104A10000127684604F0CBFA38001DB0F0BDC0464F
:104A20002CB5000026BC0000F0B505000E001F00EC
:104A300095B005AC1A9920000392FFF73AF93B00B4
:104A4000039A310000942800FFF732FF0500200090
:104A5000FFF76AF9280015B0F0BD0000F0B5036853
:104A60008BB001001B6B6846160098471C496846CE
:104A700004F05CFC109D07000C3506AC00281DD02E
:104A8000290003A804F08BFB164903A804F0FFFBE0
:104A90000100200004F083FB062321003000237373
:104AA000FEF74CFE200004F082FA03A804F07FFA1F
:104AB000684604F07CFA01200BB0F0BD6946200086
:104AC00004F06DFB39002000FDF752FB200004F0DC
:104AD0006EFA290003A804F062FB0349D5E7C0463B
:104AE0007CAC000011B5000014B50000F0B5050065
:104AF0000E001F0095B005AC1A9920000392FFF735
:104B0000D8F83B00039A310000942800FFF7A6FF75
:104B100005002000FFF708F9280015B0F0BD0000DF
:104B200030B5036889B0DB6A150098470C9901A875
:104B30000C3104F034FB0C4901A804F0A8FB04ACD0
:104B40000100200004F02BFB062321002800237322
:104B5000FEF7F4FD200004F02AFA01A804F027FA79
:104B6000012009B030BDC04614B50000F0B5050005
:104B70000E001F0095B005AC1A9920000392FFF7B4
:104B800098F83B00039A310000942800FFF7C8FF13
:104B900005002000FFF7C8F8280015B0F0BD0000A0
:104BA00030B5036889B05B6B150098470C9901A874
:104BB0000C3104F0F4FA0C4901A804F068FB04ACD1
:104BC0000100200004F0EBFA0623210028002373E3
:104BD000FEF7B4FD200004F0EAF901A804F0E7F9BB
:104BE000012009B030BDC04614B50000F0B5050085
:104BF0000E001F0095B005AC1A9920000392FFF734
:104C000058F83B00039A310000942800FFF7C8FFD2
:104C100005002000FFF788F8280015B0F0BD00005F
:104C2000F0B5050089B00F001600002B21D00E99B9
:104C300001A80C3104F0B3FA244901A804F027FBC1
:104C400029004C3104F016FB010004AC200004F0F4
:104C5000A6FA0623210030002373FEF76FFD200023
:104C600004F0A5F901A804F0A2F90123180009B085
:104C7000F0BD012231003800FEF778FD0323002843
:104C8000F4D004AC396820004C3504F088FA2100D7
:104C900001A8FDF737FB01A9280004F08AFA01A852
:104CA00004F085F9200004F082F9280004F0D3FB19
:104CB0000E9901A80C3104F072FA044901A804F01D
:104CC000E6FA290004F0D6FA0100BFE726BC00008E
:104CD000F0B505000E001F0095B005AC1A99200034
:104CE0000392FEF7E6FF3B00039A31000094280090
:104CF000FFF796FF05002000FFF716F8280015B013
:104D0000F0BD000030B589B00C9901A80C31150038
:104D100004F045FA0B4901A804F0B9FA04AC01000B
:104D2000200004F03CFA0623210028002373FEF73C
:104D300005FD200004F03BF901A804F038F901203A
:104D400009B030BD26BC0000F0B505000E001F0004
:104D500095B005AC1A9920000392FEF7AAFF3B001C
:104D6000039A310000942800FFF7CCFF05002000D3
:104D7000FEF7DAFF280015B0F0BD0000F8B5864C4C
:104D80008649200004F062F9854F8649380004F016
:104D90005DF9854E8548310004F058F9844985480D
:104DA00004F054F92300002530331D702300012244
:104DB000072131331A70804B804863637B4B20336B
:104DC00019707F4904F042F97E497F4804F03EF9AA
:104DD0007E497F4804F03AF97E497F4804F036F96D
:104DE0003B0060331D70230001226D331A707B4B32
:104DF000072023672300743318707949794804F039
:104E000025F97949794804F021F97949794804F07C
:104E10001DF97949794804F019F92300A8331D7068
:104E20002300A9331D702300754AAC331A60230098
:104E30000622B0331A707349734804F007F97349B6
:104E4000734804F003F93100724804F0FFF8724926
:104E5000724804F0FBF82300E4331D702300E533AF
:104E60001D7023006E4AE8331A600A23E0373B7056
:104E70006C496D4804F0EAF86C4F6D49380004F055
:104E8000E5F831006B4804F0E1F86B496B4804F039
:104E9000DDF890235B00E5542223FF33E554684B93
:104EA0000A22BB6294235B00E2546649664804F020
:104EB000CDF86649664804F0C9F83100654804F049
:104EC000C5F86549654804F0C1F8AE235B00E554B8
:104ED0005E23FF33E554624B0A227B66B2235B00FC
:104EE000E2546049604804F0B1F86049604804F059
:104EF000ADF86049604804F0A9F86049604804F0E2
:104F0000A5F8CC235B00E5549A235E4AFF33E554B1
:104F10000333E25008225C4F0433E25439005B480B
:104F200004F094F839005A4804F090F859495A4866
:104F300004F08CF859495A4804F088F8EA235B00D9
:104F4000E554D6230121574AFF33E1540333E2509D
:104F50000433E5545449554804F078F85449554809
:104F600004F074F83100544804F070F85349544880
:104F700004F06CF884239B00E554524B524AE554EC
:104F80000333E2500A220433E25428004F4A5049C6
:104F900004F03AFFF8BDC046E815002052B2000008
:104FA000F415002034B20000E5B600000016002021
:104FB00038B200000C160020294A000024160020F8
:104FC0005AB2000065B200003016002068B200003E
:104FD0003C160020BDB20000481600207D480000AD
:104FE000F0B2000060160020FCB200006C16002039
:104FF00012A800007816002000B3000084160020DC
:105000009147000048B300009C1600205AB30000EE
:10501000A8160020B41600205EB30000C0160020C1
:10502000ED4A00007DB30000D8160020E4160020F1
:105030008FB30000F016002093B30000FC16002090
:105040006D4B0000B2B3000014170020C5B3000080
:10505000201700202C170020C9B3000038170020AB
:10506000ED4B0000E5B3000050170020EBB300004B
:105070005C170020EFB3000068170020F3B30000B6
:1050800074170020C546000016B400008C170020DD
:105090009817002065B90000A41700201BB4000079
:1050A000B0170020D14C00003AB40000C81700200F
:1050B00046B40000D4170020E01700204AB40000D6
:1050C000EC17002011020000494D000000000020F4
:1050D000E5450000F0B591B0019316AB1C780700D0
:1050E0000E001500002C0ED1019BFEF7CFFD041E13
:1050F00009D1B86C002806D003682A005C69310029
:10510000019BA0470400F16803A804F048F80027B9
:10511000326873689B1A304A9B1053439F4213D2E4
:105120002E490CA803F092FF0C21794333680CA898
:10513000591804F09FF8010003A804F06AF80CA8BD
:1051400003F035FF0137E3E7062C2BD8200004F0ED
:1051500083FE041D232525271D00214909A803F0EE
:1051600075FF03A909A804F085F80CAE0100300012
:1051700004F015F80523280033733100FEF7DEFA3A
:10518000300003F014FF09A803F011FF03A803F097
:105190000EFF200011B0F0BD1249DFE71249DDE734
:1051A0001249DBE7124909A803F050FF0A22210047
:1051B00006A803F089FF06A909A804F05BF801001E
:1051C0000CA803F0ECFF05210CA8FCF7D1FF0CA8FC
:1051D00003F0EDFE06A8D4E7ABAAAAAA26BC0000FD
:1051E000A0B40000B4B40000C5B40000DFB40000F7
:1051F000FFB4000013B500240094FFF76BFF16BD49
:10520000F0B504000D0095B007931AAB1F781BABE7
:105210001B78110008931CAB1B780EA809931DABDB
:105220001B7816000A931EAB1B780B931FAB1B78E1
:105230000C9303F0B4FF079911A803F0B0FF0C9B87
:105240000EAA05930B9B290004930A9B200003934D
:10525000099B00970293089B019311ABFEF7D6FEC2
:1052600011A803F0A4FE0EA803F0A1FEA46C002C6C
:1052700021D0236831009B690EA80D9303F08FFFA6
:10528000079911A803F08BFF0C9B200005930B9B43
:105290000EAA04930A9B29000393099B009702938B
:1052A000089B0D9C019311ABA04711A803F07FFE52
:1052B0000EA803F07CFE15B0F0BD70B505000C0023
:1052C000FEF778FEA86C002803D0036821005B6A13
:1052D000984770BDF0B51F0004000D0089B01100A3
:1052E00002A8160003F05BFF390005A803F057FF82
:1052F00005AB02AA29002000FEF76AFF05A803F00B
:1053000056FE02A803F053FEA46C002C16D02368AE
:1053100031009B6A02A8019303F041FF390005A800
:1053200003F03DFF200005AB02AA2900019CA04725
:1053300005A803F03CFE02A803F039FE09B0F0BD59
:10534000002070477047002070470020704770476A
:10535000034B10B5186803681B68984710BDC0461A
:1053600054000020034B10B5186803685B68984729
:1053700010BDC04654000020034B10B518680368E8
:10538000DB68984710BDC046540000200123024A44
:10539000437613707047C0460C18002000200B5C49
:1053A000002B02D001308242F9D270470023C2683C
:1053B000436113707047806A7047000070B51F4CDE
:1053C000050020680E00002836D01D49002E03D0AD
:1053D00003F084FD1B49206803F06BFDEB69002B93
:1053E00007D02021206803F073FDE969206803F0ED
:1053F0006BFD1549206803F05CFD0A2229692068CD
:1054000003F0C6FD1149206803F053FD0A226969C3
:10541000206803F0BDFD002E0BD00D49206803F07D
:1054200048FDE968206803F04FFD2721206803F05C
:105430004FFD206803F052FD70BDC04618180020D3
:1054400039BD000031BD00001CBD000022BD0000C0
:105450008EB6000070B5057E0400002D1FD00269D5
:10546000C3689B18002A1BD01A78002A18D0012282
:105470000C4942760A7000221A70E06805F047F87D
:105480006061002D0BD0084B1868002807D0074931
:1054900003F00FFD064B20001978FFF78FFF70BD5A
:1054A0001500E8E70C180020181800209FB800002D
:1054B0005800002010B50400FFF7CCFF606943429C
:1054C0005841C0B210BD70B50400FFF7C3FF200003
:1054D0006569FFF7BFFF2069401B43425841C0B2D6
:1054E00070BD70B50400FFF7B5FF20002569FFF718
:1054F000B1FF6069281A70BD08B4024B9C4604389D
:1055000008BC6047E354000070B50D000400FFF7CD
:10551000A1FF2800E16803F0D7FC70BD10B50400BE
:10552000FFF798FF0123E068237610BD70B50A4CA1
:1055300005002068002808D0202103F0C9FCE96993
:10554000002903D0206803F0BFFC70BD0349206828
:1055500003F0AFFCF9E7C0461818002088B9000036
:10556000F7B5009308AB80CB15001A780AAB1B780F
:105570000400019300238360AD4863760600203069
:1055800060600836601D26602362A362E3602361C9
:105590006361E7612276C3779D4200D12AE1009ED4
:1055A000002E03D0AE1B73425E41F6B2002A26D015
:1055B000019B002B23D104291ED104222261002249
:1055C0009C4B9D4D1A70E36001239C4A2868137020
:1055D0006376002800D197E0994903F06AFC200027
:1055E000FFF7A4FF9749286803F063FC964B20005F
:1055F0001978FFF7E3FE87E0002D00D1FCE04B1E99
:10560000E560033347D9002A31D0019B002B2ED00F
:10561000002912D1874B884DE36019700123874A16
:1056200028681370637600286ED0884903F041FC27
:105630002000FFF77BFF8649D5E7280004F067FFCD
:105640002061002E00D12E70009B002B2AD17A4DB4
:105650007A4A2868013313706376002854D07D4954
:1056600003F027FC2000FFF761FF7B49BBE7002226
:10567000704B714D1A70E3600123704A28681370F3
:105680006376002840D0754903F013FC2000FFF733
:105690004DFF7349A7E7734B994200D919000139AF
:1056A0002161CEE72569681CFF3004F0AFFD0700DB
:1056B00004F0B6FD002F29D10123604A63761370F0
:1056C000E3685D4D67611F702868002818D0614944
:1056D00003F0EFFB2000FFF729FF6349286803F080
:1056E000E8FB0A222169286803F052FC5F49286818
:1056F00003F0DFFB544B276119782000FFF75EFEB3
:105700004C4BE360002323612000FEBD2A0000997A
:105710002000FFF743FE070085425CD2002E03D035
:105720000023E268656153550123434D434A2868CD
:10573000137063760028E7D0002E2BD1454903F083
:10574000B8FB2000FFF7F2FE4949286803F0B1FBDF
:105750000A223900286803F01BFC4649286803F038
:10576000A8FB394B1B78002B00D13FE7286803F0DA
:10577000B5FB4149286803F09CFB4049286803F0C9
:1057800098FB0099286803F09FFB2721286803F005
:105790009FFB2BE7019B3A49002B00D12F4903F0D7
:1057A00088FB2000FFF7C2FE3649286803F081FB22
:1057B0000A223900286803F0EBFB234B1B78002BEF
:1057C00000D113E7286803F089FB2B49286803F010
:1057D00070FB2D49D2E7002E04D102000099E06849
:1057E00004F043FD0023E2686761D355E268216954
:1057F000535489E7002A14D100220E4B0E4D1A7023
:10580000E36001230D4A286813706376002800D1F5
:105810007AE7104903F04DFB2000FFF787FE1B4994
:10582000E1E6019B002BE7D10429E5D1C5E6C0469E
:10583000BCBD00000D180020181800200C18002016
:10584000B1B90000DEB9000058000020F2BA000033
:1058500020BB000098BB0000DFBB000050BB000075
:1058600076BB0000FEFFFF7F13BC000028BC0000D9
:1058700067BC0000FFBB000031BD000081BC000020
:105880009ABC0000C6BC0000F5BC0000ABBB000029
:10589000F0B585B01E002D4C0AAB1B7805002068C2
:1058A00002930BAB039101921F78002823D0284963
:1058B00003F0FFFA2800FFF739FE2649206803F0BD
:1058C000F8FA019B002B18D12068002E27D1029BEB
:1058D000002B30D1206803F001FB1F49206803F042
:1058E000E8FA03990A22206803F052FB1B4B2800B8
:1058F0001978FFF763FD05B0F0BD002F03D1222119
:10590000206803F0E5FA114E0199306803F0DCFAE3
:10591000002FDFD12221306803F0DAFADAE71049EC
:1059200003F0C7FA3100206803F0C3FA0D4920687C
:1059300003F0CAFACEE7272103F0CAFA02992068D9
:1059400003F0C6FA27212068E6E7C04618180020B1
:105950009DB7000011BD00006DBC00005800002084
:1059600015BD000019BD000070B50D4C0600206883
:105970000D00002813D00B4903F09BFA3000FFF70D
:10598000D5FD2E21206803F0A3FA002D03D02900B5
:10599000206803F08EFA0449206803F08AFA70BD8B
:1059A000181800209DB7000071AC0000F8B5040085
:1059B0000D001600FFF74EFD63696A1C00D11D0043
:1059C000AB422AD201233B4A3B4F137063763B68BC
:1059D000002B21D039492000FFF7C6FF384938682D
:1059E00003F067FA0A222900386803F0D1FA354932
:1059F000386803F05EFA2000FFF798FD32493868F6
:105A000003F057FA61690A22386803F0C1FA2F4B94
:105A100020001978FFF7D2FC656963695B1BB3420C
:105A200034D20123234A244F137063763B68002B42
:105A30002AD022492000FFF797FF2549386803F054
:105A400038FA0A223100386803F0A2FA1D49386892
:105A500003F02FFA2000FFF769FD1B49386803F0B7
:105A600028FA0A226169386803F092FA19493868FD
:105A700003F01FFA29000A22386803F089FA134B51
:105A800020001978FFF79AFC63695E1B002E0FD087
:105A90006369E0685A1CA919521B921B41184019EE
:105AA00004F0E3FB002263699E1BE36866619A557C
:105AB000F8BDC0460C1800201818002020AE0000C9
:105AC00049B900003FB6000008B8000058000020A7
:105AD0003CB8000044B80000F7B51E0008AB170042
:105AE00004CB3D4C1B780500019323680092002BEA
:105AF00031D0FFF739FF3949206803F0DAF90A227B
:105B00003900206803F044FA2B7E002B0CD0344976
:105B1000206803F0CEF9791C0A22206803F038FAD5
:105B20003049206803F0C5F90A9B002B0CD02E49A0
:105B3000206803F0BEF90A990A22206803F028FAC7
:105B40002A49206803F0B5F9294F3978002903D193
:105B50002800FFF733FCF7BD1F4C206803F0BEF9A7
:105B60002449206803F0A5F9002E05D1009B002BE5
:105B700002D1019B002B21D01F49206803F099F925
:105B8000002E0CD02721206803F0A2F931002068F4
:105B900003F09AF92721206803F09AF90EE0009BA0
:105BA000002B0DD01549206803F083F90099206877
:105BB00003F07FF91249206803F086F93978C7E7C6
:105BC000019B002BFAD02721206803F081F901996D
:105BD000206803F07DF9DDE7181800206DBC000097
:105BE0004EBD00005ABD00005DBD00006DBD00004F
:105BF0005800002031BD000082BD000015BD00002E
:105C000019BD000070B50D4C060020680D0000287D
:105C100013D00B4903F04DF93000FFF787FC2E211C
:105C2000206803F055F9002D03D02900206803F007
:105C300040F90449206803F03CF970BD18180020B1
:105C400028BD000071AC0000F7B5060008001F0079
:105C50000C001500FFF7FEFB3000FFF7FBFB73693C
:105C60000193002B07D12B003B4304D1E268636111
:105C700013702000FEBD6B1C00D191E07B1C00D195
:105C800089E0AF424BD201970123484A484F7376CF
:105C9000137063763B68002B13D046493000FFF742
:105CA000B1FF4549386803F004F93000FFF73EFCC6
:105CB0004249386803F0FDF8414B30001978FFF78E
:105CC0007DFB7369AB422DD20123384A384D737680
:105CD000137063762B68002B13D036493000FFF722
:105CE00091FF3549286803F0E4F83000FFF71EFC07
:105CF0003449286803F0DDF8314B30001978FFF79C
:105D00005DFB7369019D9D4200D91D00019373697C
:105D1000AB4202D0019B9D4207D10023A6E701952B
:105D20003D00CEE72B00019DF0E7019B20005F1BAB
:105D3000FFF790FB23699F4222D901231B4A1C4D88
:105D40007376137063762B68002BE6D03000194908
:105D5000FFF70AFE1C49286803F0ABF82000FFF7A4
:105D6000E5FB1A49286803F0A4F839000A222868DC
:105D700003F00EF9124B20001978FFF71FFBCCE758
:105D8000F1683A004919E06804F06FFA0023E2680C
:105D90006761D3556DE7019BAB4200D274E7B6E76C
:105DA000019D7B1C00D06CE7B1E7C0460C180020B9
:105DB0001818002062B9000087B900006CB9000013
:105DC000580000209DB9000080B900006DBC0000A3
:105DD000F0B585B000930AAB1B780E0001930BABB6
:105DE000040017001D78FFF735FB0023F26873618C
:105DF00020001370FFF75EFB02000020824220D1DA
:105E00006946097803AB19705A70874200D11F00A8
:105E10003900E06804F0A6FB019B0200002B02D0D1
:105E2000002800D0012200212000FFF7BFFD636998
:105E30000093002B07D1019B5A1E93415B421D40EA
:105E4000280005B0F0BD3900E06804F04FFB009B6E
:105E50000700834201D1002DF2D033699F4236D929
:105E600001231E4A1E4D6376137073762B68002B38
:105E700026D01C492000FFF777FD1B49286803F056
:105E800018F83000FFF752FB1849286803F011F8A2
:105E90000A223900286803F07BF81549286803F0C6
:105EA00008F828683A000368E1685B68984727218A
:105EB000286803F00DF80F4B20001978FFF77EFAE1
:105EC0003A0000212000FFF771FD0125B8E73B00F3
:105ED000002231002000FFF7B7FEF1E70C18002088
:105EE0001818002091B6000071B600006DBC0000CB
:105EF00084B600005800002070B50C4C0D002068DE
:105F0000002812D00A4B1B78002B0ED002F0E6FFBF
:105F10000849206802F0CDFF0749206802F0C9FF58
:105F20000A222900206803F033F870BD18180020F9
:105F30005800002031BD00003FBD0000F8B50C0046
:105F400005001700FFF786FA002C1BD101233A4AFF
:105F50003A4E13706B763368002B01D10020F8BDE8
:105F600037492800FFF700FD3649306802F0A1FFED
:105F700039002800FFF7C0FF334B19782800FFF7DE
:105F80001DFAEBE76E697B1C00D13700200004F09E
:105F9000BEFA0200B7423DD90123274A274E1370AB
:105FA0006B763368002BD9D025492800FFF7DCFC3D
:105FB0002649306802F07DFF0A223900306802F07D
:105FC000E7FF2349306802F074FF2800FFF7AEFABC
:105FD0002049306802F06DFF0A226969306802F0DA
:105FE000D7FF194F3B78002B12D0306802F076FFB4
:105FF0001949306802F05DFF1849306802F059FF16
:106000002100306802F060FF2721306802F060FF55
:106010003978B3E73B18B342A0D8002804D1BE1B9F
:1060200070427041C0B29AE7E8682100C01904F0DC
:1060300075FA44426041F5E70C180020181800205A
:1060400028B60000E6B800005800002033B6000073
:106050003FB6000008B8000031BD000051B9000093
:10606000F0B587B003930CAB1B780E0004930DAB17
:106070001B78170005930400FFF7ECF90023F26882
:10608000736113709F4219D1254A264D01336376FF
:10609000137073762B68002B02D1002007B0F0BD7F
:1060A00021492000FFF760FC2049286802F001FF29
:1060B0001F4B20001978FFF781F9EEE73D78002D9E
:1060C0000FD10123164A63767376164E1370336828
:1060D000002BE2D014492000FFF746FC1549306838
:1060E000E4E72000FFF7E6F9021ED6D1059B002B5E
:1060F0000AD1049B3A000193039B310000932000D6
:106100000023FFF765FEC9E739002000FFF716FFFF
:106110000028EED0039B002BEBD00120BEE7C04649
:106120000C1800201818002091B600004EB800008E
:106130005800002078B8000010B50249FFF714FCA1
:1061400010BDC04615B8000070B5084C05002068A9
:10615000002809D0064902F0ACFE2800FFF7E6F956
:106160000449206802F0A5FE70BDC0461818002042
:106170009DB7000011BD0000F0B50400150087B008
:106180001E0005912F00FFF765F96369002E00D10D
:106190005F19059B002B21D14B4A4C4D01331370E5
:1061A00063762B68002B0DD02000002E13D0FFF754
:1061B000CBFF4749286802F07CFE464B1978200047
:1061C000FFF7FCF8002E03D00023E2686361137030
:1061D000200007B0F0BDFFF7AFFFEAE7002D05D1C3
:1061E000002EF5D0E36865611D70F1E72A0005997E
:1061F0002000FFF7D3F8A84235D20123324A334FAB
:10620000137063763B68002BDCD02000002E27D073
:10621000FFF79AFF3049386802F04BFE29000A2246
:10622000386802F0B5FE2D49386802F042FE294D6B
:106230002B78002B12D0386802F050FE28493868BD
:1062400002F037FE2749386802F033FE05993868B6
:1062500002F03AFE2721386802F03AFE2978AEE7CC
:10626000FFF76AFFD6E723699F420DD8002E25D19C
:10627000E3686269059998182A0003F0F6FF002385
:10628000E2686761D355A3E701230F4A6376137071
:10629000002E09D00025059A019500952B003900A4
:1062A0002000FFF7F5FA9DE7029501960096059B01
:1062B0003A000D492000FFF70FFC89E70023E26850
:1062C00063611370D4E7C0460C1800201818002032
:1062D000E6B800005800002043B600004CB60000AD
:1062E00031BD000051B9000015B8000010B5002301
:1062F000FFF742FF10BD0000F0B587B016000400A4
:106300000591FFF7A7F8002E02D1002007B0F0BDDD
:10631000320005992000FFF741F8B04247D201232F
:10632000314A324D137063762B68002BEDD0304923
:106330002000FFF719FB2F49286802F0BAFD0A2256
:106340003100286802F024FE2B49286802F0B1FDD4
:106350002A4B1B78002B24D0286802F0BFFD284967
:10636000286802F0A6FD2749286802F0A2FD264908
:10637000286802F09EFD00272868BE420ED0059BCB
:106380000A22D95D02F000FE731E286820219F4278
:1063900000D20C3102F09CFD0137EDE71B4902F001
:1063A00088FD164B20001978FFF708F8ADE76569FE
:1063B000236972199A4207D8320005992000FFF725
:1063C00095FF6069401BA1E701230025064963761C
:1063D0000B702000029601950095059B0449FFF77C
:1063E0007BFB280092E7C0460C18002018180020FC
:1063F000BFB7000043B60000C5B70000580000203A
:1064000031BD000082BD0000DDB70000E1B7000033
:1064100008B4024B9C46043808BC6047F96200008F
:10642000F0B585B00F0004001600FFF713F8002F39
:1064300021D10123214A224D137063762B68002B52
:106440000DD02000002E13D0FFF77EFE1D492868D6
:1064500002F02FFD1C4B20001978FEF7AFFF002E35
:1064600003D00023E26863611370200005B0F0BD23
:10647000FFF762FEEAE7002E11D02569002D0ED14C
:1064800001210E4B617619702A002B0001950097AF
:106490002000FFF7FDF9E36865611D70E5E7002363
:1064A00003AD28006B702F7004F031F83300020048
:1064B00029002000FFF760FE0400D6E70C1800203A
:1064C0001818002061B600005800002010B5002206
:1064D000FFF7A6FF10BD0000F0B585B00E00050067
:1064E000FEF7B8FF002E18D10123184A184F137079
:1064F0006B763B683400002B0CD016492800FFF760
:1065000033FA1549386802F0D4FC144B2800197886
:10651000FEF754FF200005B0F0BD6B6901245A1C42
:106520002B699A4204D831002800FFF7CFFFF1E72A
:10653000064B6C761C70002406490294019400946A
:1065400023002800FFF7C8FAE4E7C0460C18002033
:1065500018180020BFB70000E4B700005800002062
:1065600008B4024B9C46043808BC6047D96400005C
:10657000F0B589B003930EAB1E7810AB1B78029276
:10658000049300235361D26804001370049B0F002E
:106590000592012B1BD9119B002B18D1914A013375
:1065A0001370914D029A437653762B68002B0AD0D4
:1065B0008E49FFF7D9F98E49286802F097FC8D497A
:1065C000286802F093FC049B11930023049320009D
:1065D000FEF740FF2369012B16D80123814A824D23
:1065E0001370029A637653762B68002B03D1002533
:1065F000280009B0F0BD20007C49FFF7B5F97E49BD
:10660000286802F073FCF2E72000FEF723FF002267
:1066100007AB5A70039A1E70002A00D103930399A6
:10662000E06803F09FFF002102002000FFF7BEF9A1
:106630000023A362119B002B0CD0631DDA7F002A7C
:1066400008D10F9A1278002A04D00122DA7702F0DA
:1066500077FF20623B6838001B699847002837D1D4
:1066600000260023039A0193009302992000FFF76C
:10667000F7FC01250028BBD1002E00D084E02000CB
:10668000FEF721FF002800D183E0564B65761D7090
:10669000029B5D76544D2868002811D002F01EFC44
:1066A0005649286802F005FC2000FEF73FFF5449D8
:1066B000286802F0FEFB534B20001978FEF77EFE9F
:1066C0000025E36865611D7001230F9A13708FE741
:1066D00020006569FEF7BEFE23699D42C0D22000FE
:1066E000A56AFEF7B7FE23699D42B9D23B68380020
:1066F0005B699847A36A06000133A362002818D19A
:106700000122384B384D111C62761A702868029AA3
:10671000517600289ED002F0E1FB3849286802F04B
:10672000C8FB2000FEF702FF3749286802F0DEFBB5
:1067300090E7049B002B03D0C1B2380002F0C8FBE5
:10674000119B002B05D00122631DDA7702F0F8FEC1
:1067500020620F9B1B78002B03D1F1B22000FFF7C2
:10676000B5FE3100039803F0A9FE002800D171E7BF
:106770000F9BF6B21B78002B00D172E700250F9B10
:106780001D70E36865611D7031002000FFF79EFEFB
:106790002EE7671DFD7F002D00D128E702F0D0FE17
:1067A000236AC01A119B984200D820E70F9B6269A8
:1067B000FE771B78002A02D1002B00D117E7002BAF
:1067C00006D00025E36865611D700F9B1D700FE703
:1067D0000122019300920299039A2000FFF740FCE6
:1067E00006E7C0460C180020181800209BB60000D1
:1067F000AAB60000E7B6000034B700009AB7000060
:1068000077B7000058000020A4B700007FB51E0035
:1068100008AB050001CB1B78002E18D101231A4AC2
:106820001A4C13706B762368002B02D1002004B041
:1068300070BD17492800FFF797F81649206802F045
:1068400038FB154B28001978FEF7B8FDEEE73478D1
:10685000002C0ED101230C4A0C4E13706B7633685A
:10686000002BE3D00A492800FFF77EF80B49306877
:10687000E5E7029300230A9C019000930394330000
:106880002800FFF775FED2E70C180020181800202A
:106890009BB600004EB800005800002078B80000F9
:1068A0000022044B04495A601960044B5A60044AA0
:1068B0001A6070470418002000B60000101800206D
:1068C00018B6000073B5012300250093019504005C
:1068D0002B00026B0100C06AFFF7C2FB0600E06AF2
:1068E000FEF764FD2300701E864134331D70DD7099
:1068F000F0B22564656476BD70B504001E00C16207
:1069000004AB02631D78FFF7DDFF230034331E70F4
:106910006B1E9D41230035331D70059B2200A36330
:10692000002336321370537093712364636470BD17
:10693000F0B585B00D0011001A000CAB1E780DAB40
:106940001F78012302930023040001930A9B009304
:10695000094BFEF705FE094B20002360084B00970A
:1069600063600E9B0B9A019329003300FFF7C4FF6D
:10697000200005B0F0BDC0467CAC0000F4BD0000B6
:106980000CBE0000F0B5056C89B00400002D15D1D7
:106990003A4C200002F0A2FA3949200002F0A6FA8F
:1069A000200002F09BFA374B18680368DB689847B1
:1069B000354802F0FBFD280009B0F0BD0600343672
:1069C000337802000593836B29000293030035336B
:1069D00006931B7800960193036BC06AFFF716FFBE
:1069E0000200531E9A416B4607920700E06A1D7F22
:1069F000FEF7E1FC636C1818059B6064002B0AD15C
:106A000033780593002B03D1079B5B421D4028E0A0
:106A1000002F03D01DE0002F23D105973378002BE2
:106A200014D0A36B22000293069B1B78009601935F
:106A3000236B216CE06AFFF7E9FE451EA841C5B251
:106A4000E06AFEF7B8FC636C18186064059B002BC5
:106A500007D00A4E300002F041FA0C49300002F033
:106A600028FA230036331B78002BA4D12000FEF730
:106A700021FD43425841404205409CE71018002048
:106A80001CBE0000540000208813000060BE0000FF
:106A90000300012210B537331A70026C0400002A7B
:106AA00025D000221A70C06AFEF780FC206C0368B3
:106AB0001B699847002813D0206C03685B699847CE
:106AC000C1B2002903D12000FEF760FCEEE72300ED
:106AD00035331B78002BE9D0206C02F0F9F9E5E79B
:106AE0002300012234331A702000FFF74BFF10BD42
:106AF00000234364030010B5016437331B78002B77
:106B000001D0FFF7C5FF10BD0C3070470C30704747
:106B10000620704770B5234E0500048F8AB0408F61
:106B2000B14200DD310048431E4903F029FAEB8EE3
:106B30001C491B1B584303F023FA0419B4422CDDF3
:106B4000184C02F003FD2B00286434331878210020
:106B500002F04AFF01233C352B70134904A802F0D0
:106B600075FA0A22210001A802F0D2FA01A904A8AC
:106B700002F080FB010007A802F011FB022107A828
:106B8000FBF7F6FA07A802F012FA01A802F00FFAD2
:106B900004A802F00CFA0AB070BDE043C01704402C
:106BA000CFE7C046FFFF000028C1000030B50B68EA
:106BB00085B004001B6A08001500984785420ADD6D
:106BC0000A4901A802F042FA01A80521FBF7D0FA10
:106BD00001A802F0ECF93C216943054B2000C918DB
:106BE000FDF767F8200005B030BDC0468BB500004A
:106BF0001C18002070B5054D054C3C3D20003C3C68
:106C0000FDF792F8AC42F9D170BDC0461C180020C7
:106C100048190020F8B504000E00FDF7BFF9200068
:106C200000250127134B144908332360134B2430EC
:106C3000E360134B2161636127766576E061114A59
:106C400003F001F902232362E36930009D70012300
:106C50005B42E386638723003C3325871D700A4B24
:106C600025646364230034331E70390002F0A6FFEC
:106C70002000F8BD48C1000045C1000085BF0000EC
:106C8000B8A8000047C10000983A000010B50029DC
:106C900001DDFFF73FFF10BD030010B534330400E2
:106CA0000021187802F0A0FE00233C34237010BDB0
:106CB00010B5040002F04AFC23003C331B78002B83
:106CC00009D0226C636C801A984204D9002B02D040
:106CD0002000FFF7E1FF10BD70B50C001500002388
:106CE0008AB00600012229002000FCF73FFD0323A3
:106CF000002831D0206802F0D7FB01003000FFF7F8
:106D0000C5FF0E9968460C3102F049FA14496846ED
:106D100002F0BDFA0600206802F0C6FB0A2201005C
:106D200003A802F0F5F903A9300002F0A3FA06ACBB
:106D30000100200002F033FA06232100280023730B
:106D4000FCF7FCFC200002F032F903A802F02FF956
:106D5000684602F02CF9012318000AB070BDC04645
:106D600026BC0000F0B505000E001F0095B005AC74
:106D70001A9920000392FCF79CFF3B00039A310014
:106D800000942800FFF7A8FF05002000FCF7CCFFC7
:106D9000280015B0F0BD000070B58AB015000E00D7
:106DA000FFF77AFF0E9968460C3102F0F8F91449A2
:106DB000684602F06CFA0400306802F075FB0A22A3
:106DC000010003A802F0A4F903A9200002F052FA7E
:106DD00006AC0100200002F0E2F9062321002800A1
:106DE0002373FCF7ABFC200002F0E1F803A802F0EB
:106DF000DEF8684602F0DBF801200AB070BDC0463C
:106E000026BC0000F0B505000E001F0095B005ACD3
:106E10001A9920000392FCF74CFF3B00039A3100C3
:106E200000942800FFF7B8FF05002000FCF77CFF66
:106E3000280015B0F0BD0000F0B58BB006000F00C3
:106E40001500109C002B2AD0210068460C3102F05E
:106E5000A6F91949684602F01AFA04000A22F18ECE
:106E600003A802F031F903A9200002F003FA06ACEE
:106E70000100200002F093F906232100237328006B
:106E8000FCF75CFC200002F092F803A802F08FF8F7
:106E9000684602F08CF8012318000BB0F0BD012207
:106EA00029003800FCF762FC03230028F4D038687E
:106EB00002F0FAFAF086C7E726BC0000F0B505003C
:106EC0000E001F0095B005AC1A9920000392FCF744
:106ED000F0FE3B00039A310000942800FFF7ACFF5E
:106EE00005002000FCF720FF280015B0F0BD0000D1
:106EF000F0B58BB006000F001500109C002B2AD0B7
:106F0000210068460C3102F04AF91949684602F03E
:106F1000BEF904000A22318F03A802F0D5F803A9B4
:106F2000200002F0A7F906AC0100200002F037F9BA
:106F30000623210023732800FCF700FC200002F048
:106F400036F803A802F033F8684602F030F801235F
:106F500018000BB0F0BD012229003800FCF706FC38
:106F600003230028F4D0386802F09EFA3087C7E780
:106F700026BC0000F0B505000E001F0095B005AC62
:106F80001A9920000392FCF794FE3B00039A31000B
:106F900000942800FFF7ACFF05002000FCF7C4FEBA
:106FA000280015B0F0BD0000F0B58BB006000F0052
:106FB0001500109C002B2AD0210068460C3102F0ED
:106FC000EEF81949684602F062F904000A22718F4E
:106FD00003A802F079F803A9200002F04BF906ACEF
:106FE0000100200002F0DBF80623210023732800B3
:106FF000FCF7A4FB200001F0DAFF03A801F0D7FFA3
:10700000684601F0D4FF012318000BB0F0BD012247
:1070100029003800FCF7AAFB03230028F4D03868C5
:1070200002F042FA7087C7E726BC0000F0B5050001
:107030000E001F0095B005AC1A9920000392FCF7D2
:1070400038FE3B00039A310000942800FFF7ACFFA4
:1070500005002000FCF768FE280015B0F0BD000018
:10706000F0B58BB006000F001500109C002B2AD045
:10707000210068460C3102F092F81B49684602F084
:1070800006F904000A22716C03A802F053F803A960
:10709000200002F0EFF806AC0100200002F07FF8BB
:1070A0000623210023732800FCF748FB200001F091
:1070B0007EFF03A801F07BFF684601F078FF012303
:1070C00018000BB0F0BD012229003800FCF74EFB80
:1070D00003230028F4D0386802F0E6F9034B984205
:1070E000C6D87064C4E7C04626BC000090D0030038
:1070F000F0B505000E001F0095B005AC1A992000F0
:107100000392FCF7D6FD3B00039A3100009428005F
:10711000FFF7A6FF05002000FCF706FE280015B0CB
:10712000F0BD0000F8B55A4C5A49200001F08EFF1E
:1071300059495A4801F08AFF594E5A49300001F026
:1071400085FF5949594801F081FF2300002530335C
:107150001D702300052731331D70554B20366363A6
:1071600037705449544801F071FF5449544801F0B4
:107170006DFF5449544801F069FF5449544801F0E7
:1071800065FF464B082260331D7023006D331D7070
:10719000504B51492367230074331A704F4801F054
:1071A00055FF4F494F4801F051FF4F494F4801F0FB
:1071B0004DFF4F494F4801F049FF2300A8331D7090
:1071C00023000126A9331E7023004B4AAC331A60FA
:1071D0002300B0331F704949494801F037FF49493E
:1071E000494801F033FF4049484801F02FFF484922
:1071F000484801F02BFF2300E4331D702300E533E2
:107200001E702300444AE8331A60244B4349E0339C
:107210001F70434801F01AFF424F4349380001F004
:1072200015FF4249424801F011FF4249424801F02E
:107230000DFF90235B00E5542223FF33E6543F4BC0
:107240000222BB6294235B00E2543D493D4801F0B9
:10725000FDFE3D493D4801F0F9FE3D493D4801F044
:10726000F5FE3D493D4801F0F1FEAE235B00E554DB
:107270005E23FF33E6543A4B12227B66B2235B0057
:10728000E2542800374A384902F0BEFDF8BDC04636
:107290001C180020A4BE000054B1000028180020D3
:1072A00034180020ABBE0000B3BE00004018002020
:1072B000656D0000EBBE000058180020E2B300002E
:1072C00064180020F0BE000070180020F4BE00001A
:1072D0007C180020056E00008EBF0000941800206E
:1072E00097BF0000A01800209ABF0000AC18002033
:1072F000A4BF0000B8180020BD6E0000C6BF00008B
:10730000D0180020CFBF0000DC180020E8180020B3
:10731000D2BF0000F4180020756F0000F4BF000019
:107320000C1900201819002004C0000007C000003C
:10733000241900200DC00000301900202D7000001D
:107340002BC00000481900202EA80000541900206E
:107350003AC00000601900203DC000006C190020F8
:10736000F170000000000020F56B000000230371A5
:10737000016070479446F0B59E1E721E96416246AB
:10738000056892072F6836063A4332432A6007257C
:1073900005AC24780068A4012940214342680024F8
:1073A000022B00D05C03114321434160F0BD30B596
:1073B000C0250368AD031C6812052A402243C0247F
:1073C0000904A40221401143196003685A68144358
:1073D0005C6030BD0123026811680B4313600368D1
:1073E0001A68D207FCD4DA69D207F9D470470223AD
:1073F000026811680B4313600268D3699B07FCD4D1
:1074000070470268137E9B0702D40379002BF9D1E1
:10741000002303717047002203685A837047036892
:10742000187E4007C00F70470368187EC009704778
:10743000802302685B42117E0B431376704703681A
:10744000588B8007C00F704702230268518B0B4393
:10745000538370470368187EC007C00F70470368E6
:10746000188DC0B2704703681A7ED207FCD589B266
:1074700019850123037118007047012203689A756A
:107480007047012203681A75704700000368214A9B
:1074900030B593422FD0204A93422FD01F4A9342B7
:1074A0002FD01F4A93422FD01E4A93422FD01E4AFC
:1074B00093421FD10E2319220121032599401B4815
:1074C000C024016099082B40AB40FC359D408900E9
:1074D0000918A4000859A843C0259D402B00034368
:1074E0000B518023DB011A43114B5A805A7852B258
:1074F000002AFBDB30BD09231422DDE70A23152215
:10750000DAE70B231622D7E70C231722D4E70D2343
:107510001822D1E700080042000C0042001000428F
:107520000014004200180042001C004200E100E08C
:10753000000C0040F8B504000F0016001D00FFF716
:10754000A5FF2000FFF746FF1C21BB000B40710781
:107550002268090C0B431360842322689375012F62
:107560001AD11021012E00D008390C4B694318683C
:10757000C00002F07BFC0722216802408B89520385
:10758000DB04DB0C13438B81226803049089DB0C42
:10759000400B400318439081F8BDC04664000020B2
:1075A0000020704770B50F26CB1D01390200324014
:1075B000D5B22C0000093034092A00DD07341C70D4
:1075C000013B8B42F2D170BD10B50C000B4B18681B
:1075D000FFF7E8FF21000A4B08311868FFF7E2FFC8
:1075E0002100084B10311868FFF7DCFF2100064B23
:1075F00018311868FFF7D6FF202010BD0CA08000BE
:1076000040A0800044A0800048A0800008B4024B45
:107610009C46103808BC6047C97500007047704729
:107620003F20704713B56B460268D9710733546821
:1076300019000122A04716BD70B50A260B7892B03A
:107640006E44023305000B703C220021300002F032
:107650001FFE394801AC06903848242107900620C7
:1076600020776846364AA1742281364A364BA28179
:10767000FD3AFF3A8018C177684623390630C17752
:1076800068460730C17702A8C1770720F277032642
:1076900008316944C87703A9CE7710212B366E4490
:1076A0003170092621851F3169440E700CA9053EF1
:1076B0000E7033212380022369440B7006360DA916
:1076C0000E7022493536A1863B216E44307010A8D9
:1076D0006274E27702703D3269446A440B70137041
:1076E00040210022E37023716371A37341336B4423
:1076F000218719705A702B7DC039A370A3726377EC
:107700000133DBB2A3776A7D0B200D00684415437B
:10771000C5773120684403703A23501C6B441870BD
:10772000412302320A436B441A7021004222084866
:1077300000F004FD12B070BD1001042402060524FF
:107740000904000001020000080B0000070500000A
:10775000E819002008B4024B9C46103808BC60476A
:1077600039760000F8B5027D0B7904000D00002782
:107770009A420CD10B784E78A12B0AD1212E06D13A
:107780000100072234311C4800F0D8FC01373800D2
:10779000F8BD212BFBD1202E23D10100072234314B
:1077A000154800F00DFC9623626BDB009A421FD156
:1077B0003B342378DB071BD4FA2002F0D7FA0021F0
:1077C0000D4800F0C3FD0127232EE0D1EB78AA7805
:1077D0001B021343094A00210748136000F0B6FD5D
:1077E000D5E7222EEFD103008A783B331A70DAE70F
:1077F00002F0C6FAE3E7C046E81900205C0000206A
:1078000008B4024B9C46103808BC604765770000FE
:1078100010B534300822002102F03AFD10BD0000FE
:1078200010B5417D006A013100F002FB034B1B687B
:1078300001335A1E9341181810BDC0466000002045
:1078400010B5417D006A023100F008FB10BD10B593
:10785000417D006A023100F0CFFA10BD70B50D0015
:10786000417D0400130002312A00006A00F0BCFBD5
:10787000002801D10123636070BD000010B5054CE4
:1078800023685A1C04D103685B6998470300206091
:10789000180010BD60000020074A0300106810B5F2
:1078A000411C03D001235B42136010BD597D186A4F
:1078B000013100F049FBF8E76000002070B50500D9
:1078C00001F03EFEF423FF330024984207D93B35F4
:1078D0002C780A20631E9C41E4B201F067FE200070
:1078E00070BD00207047704770470000FA239B006E
:1078F00010B58360114B0022C382030028338361DB
:107900000F4B04004260C2611800503323610830FD
:10791000631D21622060DA770A4A2F3303CA03C34A
:107920008323A362813BE3628033236301F086FA01
:107930002100103101F054FA200010BD03020000B4
:1079400084C100007CC10000022110B5094B1A68F7
:10795000437D5B01D318FF339C7A21439972437DA9
:107960000133DBB25B01D3180122FF33997A0A435A
:107970009A7210BDA01E002010B502490248FFF700
:10798000B5FF10BDE819002084190020704710B51C
:10799000040001F0C1FE200010BD0000F0B58229F6
:1079A00019D1C3B2294D5A01AA189169284C8001F6
:1079B0000C40C021890521439161264908334018B4
:1079C0007021506128685B011A5C8A4311003022E3
:1079D0000A431A54F0BD0029FCD1C026C1B21B4C89
:1079E0004B01E3189A681A4DB6052A4032439A6053
:1079F000194A800182185A600A0007272468083251
:107A00005201115DB9430F000121394311559F699E
:107A100010493D4040182E439E6158617020115D11
:107A20008143080010210143115599680B48A218A1
:107A3000084080214903014399609968890B8903B3
:107A40009960402311790B431371C3E7A01E0020F6
:107A5000FFFFFF8F141A0020D41B0020FF3F00F00F
:107A6000EFF3108303600123436072B6704703682D
:107A7000002B02D162B6BFF36F8F704773B5836D71
:107A80000400002B1BD10600A83635786846FFF7A6
:107A9000E7FF019BEDB2013B02D33578EDB2FAE787
:107AA00068460193FFF7E3FF002D01D1002076BD6A
:107AB0002300A4331868A0342368C01AF7E7684687
:107AC000FFF7CEFF22000025019BF432013B02D3D9
:107AD0001578EDB2FAE768460193FFF7C8FF002D6D
