:0200000460009A
:100000004643464200000156000000000103030081
:1000100000000000000000000000000000000000E0
:1000200000000000000000000000000000000000D0
:1000300000000000000000000000000000000000C0
:1000400000000000010408000000000000000000A3
:100050000000200000000000000000000000000080
:100060000000000000000000000000000000000090
:100070000000000000000000000000000000000080
:10008000EB04180A063204260000000000000000FD
:10009000050404240000000000000000000000002F
:1000A0000000000000000000000000000000000050
:1000B0000604000000000000000000000000000036
:1000C0000000000000000000000000000000000030
:1000D00020041808000000000000000000000000DC
:1000E0000000000000000000000000000000000010
:1000F0000000000000000000000000000000000000
:10010000D8041808000000000000000000000000F3
:100110000204180804200000000000000000000095
:1001200000000000000000000000000000000000CF
:10013000600400000000000000000000000000005B
:1001400000000000000000000000000000000000AF
:10015000000000000000000000000000000000009F
:10016000000000000000000000000000000000008F
:10017000000000000000000000000000000000007F
:10018000000000000000000000000000000000006F
:10019000000000000000000000000000000000005F
:1001A000000000000000000000000000000000004F
:1001B000000000000000000000000000000000003F
:1001C000000100000010000001000000000000001D
:1001D000000001000000000000000000000000001E
:1001E000000000000000000000000000000000000F
:1001F00000000000000000000000000000000000FF
:10020000FFFFFFFFFFFFFFFFFFFFFFFFFFFFFFFFFE
:10021000FFFFFFFFFFFFFFFFFFFFFFFFFFFFFFFFEE
:10100000D100204321160060000000000000000015
:101010002010006000100060004804600000000024
:10102000000000600054040000000000FFFFFFFF0C
:10103000FFFFFFFFFFFFFFFFFFFFFFFFFFFFFFFFC0
:10104000FFFFFFFFFFFFFFFFFFFFFFFFFFFFFFFFB0
:10105000FFFFFFFFFFFFFFFFFFFFFFFFFFFFFFFFA0
:10106000FFFFFFFFFFFFFFFFFFFFFFFFFFFFFFFF90
:10140000884207D0904205D251F8043B40F8043B93
:101410008242F9D8704700BF884204D2002340F8C6
:10142000043B8142FBD870472DE9884800F09EF9C3
:101430000824604B604AC3F8544160496048FFF794
:10144000DFFF604A60496148FFF7DAFF60496148A1
:10145000FFF7E2FF604C4FF0E0214FF470000023F3
:101460005E4AC1F8880D44F823200133B02BFAD12D
:101470005B4B80215B4A03F8011B9342FBD14FF089
:10148000E0254C4E4FF08039DFF888B1DFF888A1B5
:101490004FF0FF31C5F8084D0027C6F80491C6F893
:1014A00000B1C6F8F490C6F8F0A0D5F8243DDFF8F6
:1014B0006C8143F4E0234C4AC5F8243DD8F81C3035
:1014C00023F07F0343F04003C8F81C30D8F82430E1
:1014D00023F07F0343F04003C8F824309166D166BF
:1014E0001167516700F04AF9404B4149A363414BF2
:1014F000E36363236B610323AF612B613E4BC5F84C
:10150000203DD5F8FC3D43F08073C5F8FC3D3B4BD6
:101510001A6842F001021A605B680B6000F0AAF9D9
:10152000C6F804913648C6F800B1C6F8F490C6F87B
:10153000F0A000F0DDFBD8F86C10324B324A41F4D9
:101540004051C8F86C101F60C3F80871C3F81871D7
:10155000C3F82871C3F83871936BDB0708D442F6DF
:1015600015632A4951651365936B43F00103936337
:10157000254A274C936843F00113936000F068F804
:1015800000F0AEFB00F0A4F900F0F2F82368132B92
:10159000FCD900F035FA2368B3F5967FFBD300F051
:1015A000EBF800F0E7F800F097FB00F0ADFB30BF80
:1015B000FDE700BF00800D40AC7C0300D41F00603D
:1015C00000000000C0AA0020849C036000000020EE
:1015D000602B0120C0AA002000A8002011E4000018
:1015E00000E400E0A0E400E000C00A402DCB0000D1
:1015F0003C29012031CB000000002020001000E039
:101600000046C3230040084000400D400000C05683
:10161000402901201B1018200C0D111300C00F4091
:10162000074B4FF42A01074A07485A641864074ACF
:1016300099639546BFF34F8FBFF36F8FFFF7F4FEAB
:1016400000C00A40FFBFAAAA0700200000800420B3
:10165000104BA020104AD96E41F4403110B4D96625
:1016600040F23764D96E41F44071D9665464906495
:10167000936C1B06FCD4094A40F23761A0235164E5
:101680009364936C13F08003FBD1054A13705DF8EB
:10169000044B704700C00F4000400C4000800C40DD
:1016A0001F2B0120B1F5607FF8B50E460F4628BF0D
:1016B0004FF46076054672B6234B00247022186002
:1016C0002146224B22481C8000F002FBCFB121466C
:1016D0001F484FF0010C4A0901F01F03013150F877
:1016E00022400CFA03F38E4243EA040340F822300E
:1016F000F1D8284600234380013300F582709E42D2
:10170000F9D8144C25780DB162B6F8BD082000F068
:10171000EBFA8022104902710560104A00F0D4FAF9
:101720002378002BF0D10E4B0E4AC3F858210E49F6
:10173000D0204FF0E023402281F84600C3F8082172
:101740000123237062B6F8BD48C80020FC2A01209E
:1017500050C80020162B012009BD00001B100100FD
:1017600000A8002015BD000000E400E0704700BFA5
:10177000704700BF704700BF00BF704710B44FF004
:10178000E023002110242B48C3F8941DC3F89C4D7E
:101790001124C3F8A00D2848C3F89C4D1224C3F8A7
:1017A000A00D2648C3F89C4D254AC3F8A00D254C32
:1017B00042F015022448C3F89C4DC3F8A00D234CF9
:1017C0002348C3F89C4DC3F8A00D224CC3F89C2DB0
:1017D0002148224AC3F8A04DC3F89C0DC3F8A02DA0
:1017E00002F5A0221E4C0C321E48C3F89C4DC3F8D3
:1017F000A02D1D4AC3F89C0D1C4CC3F8A02D01223E
:101800001B48C3F89C4DC3F8A00DC3F8942DBFF33B
:101810004F8FBFF36F8FC3F8501FBFF34F8FBFF3CE
:101820006F8FD3F8142D5DF8044B42F44032C3F8A7
:10183000142D70473F000010250008030900100018
:10184000602B01201300200021000207140000205B
:1018500025000813090000101600202027000B1394
:1018600017000040180000602F000B0719000070DF
:101870002F000B13F0B4154A40274FF480314FF47A
:1018800080564FF400554FF4404443F24200136930
:1018900013F0020F0ED113F4005F0FD013F4805F2A
:1018A0000ED0002BF3DA13F4803F0BD15B060BD57F
:1018B000F0BC7047946151619061E8E75561E6E7DB
:1018C0005661E4E79161E2E75761E0E700800D408F
:1018D0003F4A03203F49F3EE095AD2F880304FF0D7
:1018E000000C9FED3D6A23F001039FED3C5A30B49C
:1018F000C2F88030C2F89000D1F8E010384DCBB279
:10190000384C39482B6007EE903A0B0DC1F30B2190
:10191000F8EEE77A06EE903A07EE101A334BB8EE7F
:10192000C77A2160F8EEE66A314937EEC66A37EECB
:10193000C55A76EEC76A77EEE57A26EE266AC3EDDB
:10194000006A25EE265AD2F8803067EEA64AC0ED2E
:10195000007AC6EE275A274885EE276AC4EEA76AA2
:1019600075EE875AFCEEE55A36EE076A15EE904A98
:10197000BCEEC66A43EA045376EE877AC2F880303A
:1019800016EE103AD2F89041FCEEE77A01EA0341F4
:10199000214317EE903AC2F89011C3F30B03D2F82B
:1019A00090110B431449C2F89031D2F8803043F0C3
:1019B0000203C2F88030114B80F840C0C1F84031BA
:1019C0004FF0E023012230BCC3F80821704700BF6C
:1019D00000810D4000441F400000AA420000B442B4
:1019E000B0EF0020ACEF0020B4EF0020B8EF0020F3
:1019F0000000FF0F00E400E000A80020F5E5000073
:101A0000314B40F6617210B5C3F8202140F2044416
:101A100000F072F92D4A2E49D2F880302D4843F05B
:101A20000303C2F880302C4BC1F8604102681A42AF
:101A300003D1D1F8A8319A071BD0254A4FF00041B5
:101A4000244B5963D2F8403143F00203C2F84031CD
:101A5000D2F840319B07FBD44FF400304FF0E02127
:101A60001C4B4FF00042C1F88C0219209A6300F021
:101A700047F9184A4FF08040154C002190630A2026
:101A8000164B11604FF42072C4F8A801184600F0FC
:101A90001FF94FF4800203464FF4810040F24311D6
:101AA0001860C4F858311A640D4B0E4AC4F8481136
:101AB000C3F804224FF0E0224FF400310123C2F8B2
:101AC0000C11C4F8403110BD00800D4000C00F4023
:101AD00000002E4000900D40001C1E000000002061
:101AE00000A8002001E8000008B50E4B1B6E9B0704
:101AF00000D4FBBE72B60C4B00200C4AC3F8400168
:101B000003F160430A49A3F55F2311649D46BFF3C7
:101B10004F8F4FF400130748074ADB6902609B6848
:101B2000984700BF00441F4000002E4000C00A40FC
:101B30000300200000802020000012EB43690A4AC5
:101B400003EB011010B4037A084C02EB0313D3E942
:101B500001321460C2681A6003690BB142691A60ED
:101B60005DF8044B704700BF148A002061F8010043
:101B70004369027E03EB021292F808C08C451CD028
:101B80001A7AFF2A19D0914210B5044616D01A7E4F
:101B9000FF2A06D00121D3E9002312681A4201D19D
:101BA000217610BD064B0522204603EB0C135B6823
:101BB0001A60FFF7C3FF2176F3E770470021EAE7D9
:101BC000148A002043690A4A03EB011010B490F80C
:101BD0002830084C02EB0313D3E901321460C26AC7
:101BE0001A60036B0BB1426B1A605DF8044B7047CF
:101BF000148A002061F801004369427E03EB02125F
:101C000092F828C08C451ED093F82820FF2A1AD0BD
:101C1000914210B5044617D093F83820FF2A06D019
:101C20000121D3E9002312681A4201D1617610BD67
:101C3000064B0522204603EB0C135B681A60FFF786
:101C4000C1FF6176F3E770470021EAE7148A0020BC
:101C5000164942698B6B23F47C0343F4802370B5EF
:101C60008B630446124DD2E900130A681A430369D4
:101C70000A60022200211A610E4A19619A64012247
:101C80005A629D624FF43035DD624FF001159E6C53
:101C90001E6519629D651A61017EFFF74FFF617E27
:101CA0002046BDE87040FFF78DBF00BF00C00F4069
:101CB000B80B05053B372819F8B500BFF8BC08BCC0
:101CC0009E467047000000005FF800F00DD700004E
:101CD0005FF800F0552F03005FF800F05D3003005F
:101CE0005FF800F089E200005FF800F079D90000A9
:101CF0005FF800F025C000005FF800F03DEF000045
:101D00005FF800F015C300005FF800F035D8000060
:101D100001010000490E000081450000D5BB000014
:101D20002DD20000ADD2000031D30000B5D30000A9
:101D300039D40000BDD4000041D5000065E60000A4
:0C1D4000CD190100AD1B0200A53502000A
:101D4C0007080C0B06050F000D0EFFFF0304070818
:101D5C000C0B06050F000D0EFFFF03040000000125
:101D6C000101010101010000180354006500650028
:101D7C006E007300790020004D00490044004900BA
:101D8C0018035400650065006E0073007900640050
:101D9C00750069006E006F000403090409029500C8
:101DAC00030100C032080B0002020201000904000A
:101DBC0000010202010005240010010524010101AB
:101DCC0004240206052406000107058203100010F6
:101DDC0009040100020A000000070503024000008C
:101DEC000705830240000009040200020103000001
:101DFC00072401000125000624020101000624022B
:101E0C000202000924030103010201000924030258
:101E1C000401010100090504024000000000052531
:101E2C0001010109058402400000000005250101A3
:101E3C000300000009029500030100C032080B00EA
:101E4C000202020100090400000102020100052443
:101E5C0000100105240101010424020605240600DA
:101E6C00010705820310000509040100020A0000A5
:101E7C0000070503020002000705830200020009A7
:101E8C0004020002010300000724010001250006E2
:101E9C0024020101000624020202000924030103AA
:101EAC0001020100092403020401010100090504D7
:101EBC000200020000000525010101090584020051
:101ECC000200000005250101030000000A060002C3
:101EDC00EF0201400100000070C00F40C000000084
:101EEC001200000013000000D0841F40010000000D
:101EFC00FF000000FF0000000000000000000000D8
:101F0C001300000013000000CC841F4001000000EF
:101F1C00FF000000FF0000000000000000000000B7
:101F2C001C0000003119010070C00F40000C0000B3
:101F3C001100000011000000E0841F4002000000AE
:101F4C002400000012000000E0841F40010000008B
:101F5C001000000011000000DC841F400200000093
:101F6C002500000012000000DC841F40010000006E
:101F7C001E0000003D19010080C00F40000000034E
:101F8C001900000010000000E8841F400100000050
:101F9C00FF000000FF000000000000000000000037
:101FAC001800000010000000E4841F400100000035
:101FBC00FF000000FF000000000000000000000017
:081FCC001F000000491901008B
:101FD40000000000000000000000000000000000FD
:101FE40000000000000000000000000000000000ED
:101FF400F8B54FF084439D695A6915400DD0244FBC
:1020040001269D6195FAA5F4B4FA84F457F82430B6
:1020140006FA04F49847A543F4D11E4B9D695A6906
:1020240015400DD01C4F01269D6195FAA5F4B4FA14
:1020340084F457F8243006FA04F49847A543F4D1FD
:10204400164B9D695A6915400DD0154F01269D61A7
:1020540095FAA5F4B4FA84F457F8243006FA04F493
:102064009847A543F4D10F4B9D695A6915400DD08B
:102074000D4F01269D6195FAA5F4B4FA84F457F83E
:10208400243006FA04F49847A543F4D1F8BD00BF00
:1020940008A400200040004288A4002000800042E0
:1020A40008A5002000C0004288A500200548064B72
:1020B4001B1AD90F01EBA301491002D0034B03B142
:1020C40018477047C0AA0020C0AA002000000000E2
:1020D40008B5054B1BB105490548AFF30080BDE8C1
:1020E4000840FFF7E3BF00BF0000000014EF00202A
:1020F400005404604FF0040C0021802280F804C0D6
:10210400C1800281704700BF002280210271C28019
:102114000181704730B583B005461020CDE9002118
:102124000DF012FC0446DDE9002100F09BF80121CA
:1021340020462C6003B0BDE8304000F09DB800BFDD
:10214400C18070470181704730B5002183B00546D6
:10215400044601910123009181721A4655F80A0B35
:10216400294600F0A5F8012302222946206800F040
:102174000BF9638922795BBA9BB2134112B918B285
:1021840003B030BD98B2B3F5006FA8BF40F47040FF
:1021940000B203B030BD00BF82F001021A4B41EA25
:1021A4000222C1880A4301890A430146134370B5D8
:1021B400C3F30722012684B0002504468672037304
:1021C4003346C272032251F80A0BCDE9005503913C
:1021D40000F06EF848F20303257303990322019576
:1021E400638133460095206800F062F8022233468A
:1021F40003996281032220682573CDE9005500F01C
:1022040057F804B070BD00BF0080FFFF70B5002117
:1022140082B0012605460191044600913246867239
:10222400334655F80A0B294600F042F83346022299
:102234002946206800F0A8F8608940BAC0F3C0308D
:1022440002B070BD90F8A23090F8A3209A4205D94C
:102254005A1C034480F8A220987E70474FF0FF3048
:10226400704700BF4FF0000C42602022017080F8DC
:1022740008C0C260704700BF38B5044640680D46C8
:1022840037F072FB012121720DB9084638BD207860
:102294006268884082F8301182F82F1182F8A50014
:1022A400606811F0B9F9B0FA80F0400938BD00BF98
:1022B4002DE9F041079F15469846C3683A449A426F
:1022C40016D80278044643680E46520083F8A520C7
:1022D400012283F8302183F82F2167B1069B53B183
:1022E40040683A46069903685B689847874202D07B
:1022F4000020BDE8F081606831462A4603685B68C7
:1023040098478542F4D14146606811F085F9B0FAE6
:1023140080F04009BDE8F0812DE9F84315460646F2
:102324000F46D2B20178406811F0F4F9854224D105
:1023340005B30024DFF84C90A04613E090F8A2C047
:1023440090F8A32062450CF10102844418D980F866
:10235400A2209CF81A30013407F80830A4B2A54230
:10236400A04607D97068026852694A45E6D090478A
:10237400C3B2F0E70120BDE8F8830020BDE8F8838C
:10238400FF23E8E77502000002B32DE9F041064699
:102394000F4698461546002401E0A54213D92A1B8E
:1023A400F368391930469A4228BF1A46AB1AA34239
:1023B4008CBF002308F001031444FFF7ADFF00288D
:1023C400EBD1BDE8F0810120BDE8F0810120704728
:1023D40030B482B00C4602AB03E90600C37C002B88
:1023E40030D072B6C37CDA0708D54FF0E0214569D6
:1023F400D1F880212A408262C1F880219D0708D546
:102404004FF0E0218569D1F884212A40C262C1F8E5
:102414008421590708D54FF0E021C569D1F88821F6
:102424002A400263C1F888211A0708D54FF0E02139
:10243400056AD1F88C212A404263C1F88C21DB065D
:102444002FD462B683689C4235D0224B84609B694A
:10245400214AC3F30111C3F3826352F821100133FB
:10246400B1FBF3F2CCB1944227D8B2FBF4F3B2FB44
:10247400F3F294422CD3B3F5817F20D3174CC4607C
:10248400036803220020019918615A6201221C6426
:1024940019661A6102B030BC70479942EFD3531CDD
:1024A400E9E74FF0E022416AD2F890310B408363B0
:1024B400C2F89031C5E7C468E2E70024DFE7022BE5
:1024C400FBD9023B5A08140244EA02441C43D6E7EF
:1024D4001A46E4E700C00F40307B0020FF7F7F00F6
:1024E4002DE9F84F2DED048BBDF83840042C3DD96F
:1024F4001E460133054688469BB21746042B3BD93A
:10250400B31C93460A469BB2042B3DD808EBC30A7E
:1025140007EBC309D2E900012DF020FA08EE100AF6
:10252400DBE900012DF01AFA07EE900A05F5C45311
:1025340005F58055C8EE278AD3ED007AF4EEE87AE3
:10254400F1EE10FA12DDDAE900012DF007FA08EED7
:10255400100AD9E900012DF001FA07EE900A88EE7D
:10256400279AF4EEC98AF1EE10FA10D4601C80B2F6
:10257400BDEC048BBDE8F88F01EBC30207EBC30B82
:10258400B31C9BB2042BC1D9B946C246C2E708EBBF
:10259400C608F6003744D8E900012DF0DFF908EE4B
:1025A400100AD7E900012DF0D9F907EE900AB0EE30
:1025B400005A05F67C02C8EE277AE31E05F6880564
:1025C40000209BB207EE103AF6EE005AF7EE006ACE
:1025D400B8EEC77A76EEE86AC2ED006AB0EE676AD2
:1025E40077EEC97AA8EEC56A67EEA57A36EE096A6F
:1025F400C7EE866A76EE877AC5ED007AB8E700BF43
:102604002DE9F04F00F5805300F128028046B0F820
:1026140020A02DED028B89B008EE102A00F15002A3
:10262400C146069393F8783808EE902A029383699A
:102634000393C36904934023059300F54063504614
:1026440007930021079E09EB40034A4606EB400826
:102654008E468446B3F880602033B2F8800020327E
:10266400B2F858B0801BB2F868A0B3F8706010FBE1
:1026740000F00446C517B3F858002F46ABEB000B27
:10268400B3F86800AAEB000AB2F87000801B264673
:10269400CBFB8B67CAFB8A67C0FB806771184EEB64
:1026A400070E9845D6D1039B6046049ACB184EEB8F
:1026B4000207029A9C460393A0FB0163511C09EB99
:1026C400C2020497C9B200FB0E3304290291C2E985
:1026D4000A63C2E914C7C9E906C727D88BB20699A9
:1026E40018EE902A0090029881F8780818EE101AD3
:1026F4004846FFF7F5FEE0B1059B013B9BB205930D
:10270400002B9ED1B0F5C06F8246C8461FD301236B
:102714000020DDE905129A4682F8901882F88F1895
:10272400002182F87838C9E9060110E000230293F9
:10273400D5E70123069A0021C84682F890089A46F4
:10274400002082F8783882F88F38C9E90601A8F8A1
:1027540020A009B0BDEC028BBDE8F08F2DE9F0415B
:10276400002180460BF092FB002847D008F58054E6
:1027740094F88C68002E00F0948094F88D28034619
:10278400002A3DD094F8792894F88E38511C02F22E
:102794002462C9B208EB820284F879185060002BD5
:1027A40065D017292AD941F6900541F6F00708F1BA
:1027B400780C454447442E4656F8040FACF1020207
:1027C400031D00F5827033F8021B984222F8021FA1
:1027D400F9D1BE420CF5807CEED155F8040F0BF014
:1027E40009FBAF42F9D100260023012284F88D6849
:1027F40084F8902884F88E3884F87938BDE8F0811C
:1028040094F8792894F88E08511C02F23C62C9B2FB
:1028140008EB820284F879185360A8B31729EDD91C
:1028240041F6F00541F6501708F1780E4544474447
:10283400AC465CF8040FAEF10202031D00F5827091
:1028440033F8021B834222F8021FF9D1BC450EF56E
:10285400807EEED155F8040F0BF0CCFABD42C3D004
:1028640055F8040F0BF0C6FABD42F3D1BCE794F857
:102874009038D3B91729C1D994F89038002B92D045
:102884004046FFF7BDFE8EE794F89038CBB9172980
:10289400B4D994F89038002BC2D04046FFF7B0FE6C
:1028A400BEE7BDE8F0410BF0A5BA4046FFF7A8FE2D
:1028B40094F87938172BA1D994F88E38002BDBD0F3
:1028C40071E74046FFF79CFE94F87938172B95D9A9
:1028D40094F88E38002BDCD0A2E700BF0000000083
:1028E40072B64FF0000C00F5805300F5C45200217D
:1028F40083F890C803F6880C82ED000A03F67C0284
:102904009FED097B1160012280ED067B0284A3F810
:102914007828CCF8001040F2011183F88E28A3F82F
:102924008C1862B6704700BF000000000000000071
:1029340072B600F5805393F88F2802F0FF0012B1AD
:10294400002283F88F2862B6704700BF72B641F642
:1029540088030344D3ED007A62B69FED020A80EE49
:10296400270A704700442C4772B641F67C0303449F
:1029740093ED000A62B6704710B5002104460BF0CF
:1029840085FAC8B1031DB4F91EC0B4F9201000F5CE
:10299400827E33F9022B9445A8BF94469142B8BF76
:1029A40011467345F5D10123A4F81EC02184237771
:1029B400BDE810400BF01EBA10BD00BF2DE9F04F6A
:1029C40083B00021044600900BF06CFA01900028BB
:1029D4004ED000F1040A04F1380900F5827850461B
:1029E40059E9022359E908C759E9066559E9044137
:1029F400C3F30D038B4601683CFB013337FB1B33E8
:102A040036FB0B3335FB123334FB023323F38F3E97
:102A1400C3F30D033CFB113337FB013336FB1B338C
:102A240035FB0E3334FB123323F38F32CEEA0242EA
:102A340040F8042B8045C3F30D03DBD159F8040C93
:102A440049E9031200F0004209F12009002843EA91
:102A5400020349F8243CC2DB019C00220098214671
:102A64000BF0F0F9204603B0BDE8F04F0BF0C2B90B
:102A740003B0BDE8F08F00BF03291FD8183030B46D
:102A840000EB41134C0172B629B153F8041C41F018
:102A9400004143F8041C116855680151D969D2E911
:102AA400034001F000415D60644295684042D96191
:102AB400C3E90254186162B630BC7047704700BF66
:102AC4002DE9F04F2DED028B85B008EE100A0BF0C6
:102AD4003BF9002800F0CD80684B8146684D1B68A7
:102AE400D3F810A005F5B263AAF102020193AA4239
:102AF40038BF9A46634B38BF05F28E52D3F800B004
:102B0400934516D8A2EB0B0240F25A45AA4233DC95
:102B140040F22D28571015465B4CB8EB620830D0B4
:102B24004FEA4806A1182046324632F05FF9A01950
:102B340028E0019B551B40F22D21A3EB0B066F10DF
:102B440007EB660773108F4275DDB6F58B6F00F3E4
:102B54008780C91A32464D004B4C16464FF0000888
:102B640040F22D27204659460CF054FE2A46A0195F
:102B740043490CF04FFE09E0434C4FF0000840F28B
:102B84002D2720462A4659460CF044FE3C4B019A18
:102B9400924528BF9A463B4BB7F5FE7FC3F800A089
:102BA40041DD04EB4804394EB4421BD2DFF8F0C0D7
:102BB400374F384DDCF800303868B4F900201B1A60
:102BC400900303EB823282FB05314FEA810141EA33
:102BD400937323F38F3224F8022BB442EDD3CCF851
:102BE40000303860284F09F1020C2B4E07F5806E37
:102BF4003A462A4B21240020002101E033F9024FF8
:102C040032F8025B9E42C5FB8401F7D120F34F30BA
:102C140008372CF8020FBE45EAD10022494618EEC7
:102C2400100A0BF00FF9484605B0BDEC028BBDE865
:102C3400F04F0BF0DFB8B1EB070815D0124C4FEA98
:102C44004802039304EB47012046029232F0CEF887
:102C5400039B029A08EB0301A01832464E0082E758
:102C6400002540F25A4277E7074C32460F46204689
:102C740079E705B0BDEC028BBDE8F08F04C90020F4
:102C8400C0AA0020F89C002040C300209AC700205E
:102C94000CC9002000B0FB3FC84900207049002047
:102CA40010C9002010B504460BF068FC204610BD86
:102CB4001B2800F29180F8B5484D04462B5CFF2B8D
:102CC40000F08980464AF6EE007A9FED466A0521B7
:102CD40092ED007A0026444B43F2230EB8EE477A75
:102CE4004FF0020CDA8B2720404FC7EE066A22F021
:102CF40008021204120CDA834122A3F86E106B212D
:102D0400A3F87420A3F86A60A3F86660E6EEA77AD5
:102D1400FDEEE77A17EE902A92B2A3F86020A3F8AA
:102D24007020A3F86CE0A3F878C0A3F86A60DA8B8B
:102D340092B242F00802DA833B6F43F440033B67EC
:102D44000DF004FB2A4B1A6812F0404F01D01E60AC
:102D54001E60274B41F2100126481A682C5D02259B
:102D64001043254A04F00F041860D86821434FF437
:102D7400E04440F01000D86042F24870C3F8B0401C
:102D8400C3F8B810002150641020936C1B4C43F01E
:102D940020039364106020460BF096FB23681848C8
:102DA4000022184918601848596018614FF43270AD
:102DB4002179D8829D820CB2D88314489A83C3E9BE
:102DC4000252A5F292559D6140F82420104B114AFD
:102DD40040F82420D976F8BD704700BF4C1D006030
:102DE400609A002000442C4800801E4000C00F4020
:102DF40000003B401000002000800C4004C900206B
:102E0400C8003B4000000101C0AA002000C00E40E1
:102E140000800E4017000080024A0349034822F054
:102E240083BA00BF049D0020D50C000004C9002013
:102E340008B541B10B6808469B6898470028C8BF8D
:102E440000F1FF3008BD03689B6898470028C8BF9D
:102E540000F1FF3008BD00BF00B59DF804C02AB3DF
:102E6400072923D947F6FE7E714528BF714689B2EA
:102E7400C263104A43730023A0F840104FF47A71E0
:102E840002604FF4005280F80FC043600373816006
:102E9400A0F84230436402874362837380F82C3085
:102EA400C0E90733C0E90C335DF804FB00F11002FC
:102EB4000821DDE7787700200B682DE9F04104460E
:102EC400DB6808462163C4E9071198470A200BF020
:102ED40009FA206A03689B689847626B0023904252
:102EE4006362B8BF104602282EDCDFF81C81424F13
:102EF400424E6363E56941461D222B6828465B68A0
:102F0400984728460CF09CFFE569394655222B6802
:102F140028465B68984728460CF092FFE5694C22E6
:102F240031462B6828465B68984728460CF088FF92
:102F3400E0690CF085FFE0690368DB68984741F2BB
:102F440088300BF0CFF9D5E70138B4F84620A361F7
:102F5400A4F84230606363642AB9002384F82C30F7
:102F6400A373BDE8F081B4F8402084F83830032A14
:102F740023D923497E22CE1C01E011F8012FE06BF6
:102F8400C2540023B4F84020B4F84200013A451C6E
:102F94009042B4F84620B8BFABB20132B142A4F8B3
:102FA4004230A4F84620E8D1012384F838300023C5
:102FB40084F82C30A373BDE8F081002AF4D01149C1
:102FC4004D1E15447E2201E011F8012FE06BC2541E
:102FD4000023B4F84020B4F84200013A461C904261
:102FE400B4F84620B8BFB3B201328D42A4F84230DF
:102FF400A4F84620E8D1D7E7B86B0020106C002075
:10300400606C0020686C0020986B002000000000B9
:103014002DE9F0410B680446002601631546DB6880
:10302400C0E907160846A66198470A200BF05AF92A
:103034006562002D3BD1E06903689B689847636B28
:103044009842B8BF184602286EDCDFF82882844F05
:10305400844E6563E0690CF0F3FEE56941461D2288
:103064002B6828465B68984728460CF0E9FEE5691A
:1030740039462B222B6828465B68984728460CF073
:10308400DFFEE5694C2231462B6828465B68984789
:1030940028460CF0D5FEE0690CF0D2FEE069036826
:1030A400DB68984741F288300BF01CF9D2E707EE51
:1030B400905A6663B8EE677A9FED675BB7EEC77A9E
:1030C40085EE076BFCEEC67B17EE903ADBB9664ED5
:1030D400C4ED067AE0690CF0B3FEE5695C22314682
:1030E4002B6828465B68984728460CF0A9FEE069DF
:1030F4000CF0A6FEE0690368DB68984741F288306B
:103104000BF0F0F8E6E70133B4F84620A4F8426087
:103114006664A361BAB9002384F82C30A3730BF05E
:1031240035F9A062BDE8F0810138B4F84630A4F85E
:10313400425065646063002B48D1002384F82C302E
:10314400A373BDE8F081B4F8403084F83860032BF1
:1031540020D8DBB1454A501E18447E2301E012F802
:10316400013FE16B8B550026B4F84030B4F84210AF
:10317400013B4D1C9942B4F84630B8BFAEB201339E
:103184008242A4F84260A4F84630E8D1012384F8CE
:103194003830C0E7364A7E23D51C01E012F8013FDF
:1031A400E16B8B550026B4F84030B4F84210013B73
:1031B400481C9942B4F84630B8BF86B201339542F0
:1031C400A4F84260A4F84630E8D1DFE7B4F8403010
:1031D40084F83850032B1ED9254A7E23D01C01E0E5
:1031E40012F8013FE16B4B550025B4F84030B4F8B8
:1031F4004210013B4E1C9942B4F84630B8BFB5B2F8
:1032040001339042A4F84250A4F84630E8D1012397
:1032140084F8383091E7002BF9D0144A501E184432
:103224007E2301E012F8013FE16B4B550025B4F811
:103234004030B4F84210013B4E1C9942B4F8463079
:10324400B8BFB5B201339042A4F84250A4F8463056
:10325400E8D1DCE7AFF3008000000000A8CB6841B0
:103264006C6C0020106C0020986C0020686C0020AE
:10327400606C0020986B002070B50446C06900287B
:1032840075D0637B012B02D0002384F82C30636B50
:10329400002B39D0216AFFF7CBFDB4F84630626BBE
:1032A40053B3A2B3002826DD98424FF00005A8BF0F
:1032B4001846064601E0B4F846300020002B72D0D0
:1032C400B4F84020013BB4F844C0013AE16B0CF17E
:1032D400010E944511F80C10A4F84630B8BF1FFA3B
:1032E4008EF0A4F8440019B1E06903681B6898479C
:1032F4000135AE42DFD170BD002A31D08242FADC02
:10330400606384F82C3070BDB4F8463043B30BF0DE
:103314003DF8A36AA269C31A9342ECD3B4F84630C9
:10332400A062002B41D0B4F84000B4F84420013826
:10333400E16B8242895C34DA013292B2013BA4F837
:1033440044209BB2A4F8463029B1E06903681B68A5
:103354009847B4F84630002BCDD184F82C3070BD9A
:10336400002384F82C300BF011F8A06270BD104CCF
:1033740010480CF065FD20683F220F4903685B6824
:1033840098470C480CF05CFD0A480CF059FD206885
:103394000368DB68984741F28830BDE870400AF062
:1033A400A1BF0022CAE7FF219EE7FF21CDE700BFAE
:1033B400E09C0020E49C0020586B0020C369DBB132
:1033C40010B50446FFF758FF94F82C300BB10020D9
:1033D40010BDE369002BFAD0606B18B1216A18465E
:1033E400FFF726FDB4F84030B4F846209B1A042BAE
:1033F400EEDD043B184410BD00207047C3694BB197
:1034040010B50446FFF738FFE0690368BDE81040D3
:103414001B69184718467047C3694BB110B5044679
:10342400FFF72AFFE0690368BDE810405B691847AD
:103434004FF0FF30704700BFC3694BB110B504466D
:10344400FFF71AFFE0690368BDE810409B6918475D
:103454004FF0FF30704700BF38B5C369C3B10446AD
:1034640003E02046A5B1FFF707FF636BB4F84650AD
:10347400002BF6D0D4E90701FFF7DAFC636B98421E
:10348400A3EB0003D4BFED1860632046002DEAD1FE
:1034940038BD00BF0346B0F8400070B5B3F84640ED
:1034A400001B904228BF1046F8B10139B3F842E03E
:1034B4000E1811F801CFDC6B04F80EC04FF0000EAB
:1034C400B3F840C0B3F842400CF1FF3C651C6445BE
:1034D400B3F846C0B8BF1FFA85FE0CF1010C8E424A
:1034E400A3F842E0A3F846C0E3D170BD70B504462A
:1034F4000D46FFF7C1FE637B4BB394F82C30002BD1
:103504004ED1B4F84030B4F846609A1B042A47DD23
:10351400002E62D1626B002A5FD0D4E90701FFF765
:1035240087FC002840F09080B4F84030B4F846603E
:103534009A1B042A51DC94F83830002B00F0918057
:103544000122E37B002084F82C20A37370BDB4F81F
:103554004010B4F8462084F83830914204D084F8FE
:10356400395024D8002070BD01200AF0BBFE20464B
:10357400FFF782FEB4F84020B4F846309A42F3D004
:1035840084F83950EED9B4F84230E26BD554B4F82B
:103594004020B4F84230013A93424FDB002313E059
:1035A40094F83830A3B3E37B0020A37370BDB4F860
:1035B4004220E16B8D54B4F84020B4F84210013A33
:1035C400914201DA01318BB2B4F846200120A4F80B
:1035D40042301318A4F8463070BD00229E4284F88D
:1035E400395084F83820BDD2B4F84230E16BCD5460
:1035F400B4F84030B4F84210013B994221DBB4F8EE
:1036040046300120A4F842200344A4F8463070BD9B
:10361400B4F84030B4F846209B1A032B08DD04228A
:1036240018492046FFF736FF012384F83830BAE7FB
:10363400032215492046FFF72DFFF5E701339BB21E
:10364400C2E701318AB2DAE7E069294684F83950E1
:1036540003681B689847E37B012084F83860A373F0
:1036640070BD042A08D0032207492046FFF712FF41
:10367400012384F8383063E702492046FFF70AFF44
:10368400F6E700BF606C0020686C0020C3690BB1D2
:10369400FFF72CBF184670472DE9F04104460E464B
:1036A4001746FFF7E9FD637BDBB9BFB17B1E751ECF
:1036B400DFF858821E4405E0E3690BB1FFF716FFFB
:1036C400B5420BD015F8011F2046236884F8391041
:1036D4001B684345F0D09847B542F3D13846BDE85E
:1036E400F081636BB4F84650002B40F09C8094F852
:1036F4002C30002B6CD0002D40F08D80B4F8468027
:10370400B8F1000F40F08480656B002D00F09580C7
:10371400D4E90701FFF78CFBB84228BF38460546B9
:10372400002800F08A80E06931462E442A46036866
:103734005B68984716F8013C781B84F8388084F855
:103744003930B0B3B4F84020031DB4F84610A2EBEE
:10375400010C9C4573DB002306EB000C84F8383025
:103764001CF801CC84F839C001E0B4F846108A4250
:103774001BD916F803E04FF0000CB4F84210E26BCA
:1037840002F801E0B4F84020B4F8421002F1FF3E20
:1037940001F101087145B4F84610B8BF1FFA88FC5E
:1037A4000131A4F842C0A4F8461001339842DCD891
:1037B4000544AF4206D994F83830002B48D0012391
:1037C40084F82C30E37B2F46A3733846BDE8F081A0
:1037D400002D93D0A37B002B90D02368484A9B688C
:1037E40093426ED1E36933B12046FFF745FD94F867
:1037F4002C30002B42D00020B842BFF67FAF94F8A3
:103804003830002B66D00123002784F82C3065E77C
:103814003846002595E794F83830002B41D0E37BF7
:103824000027A3735AE7D4E90701FFF701FB636B91
:1038340098420BDC1B1A1D4459E7384681E7BCF15A
:10384400030FB6DDBCF10400B3D084E760634EE738
:10385400B4F84030B4F846209B1A032B08DD042248
:1038640028492046FFF716FE012384F83830A6E7DE
:10387400032225492046FFF70DFEF5E7E369002BF7
:10388400B9D0606B18B1216A1846FFF7D1FAB4F8C1
:103894004030B4F846209B1A042BADDD043B184499
:1038A400AAE7B4F84030B4F846209B1A032B0BDC8B
:1038B400032215492046FFF7EDFD012384F8383033
:1038C400ADE72046984797E704220E492046FFF7C4
:1038D400E1FDF2E7B4F84030B4F846209B1A032B1C
:1038E40008DC032208492046FFF7D4FD012384F8AD
:1038F400383088E7042203492046FFF7CBFDF5E77B
:10390400ED130000606C0020686C0020BD16000000
:10391400C3690BB1FFF7C0BE18467047002070475B
:10392400704700BF0020704700207047704700BFF9
:10393400024B186803681B68184700BFE09C00200E
:10394400024B186803685B68184700BFE09C0020BE
:10395400024B18680368DB68184700BFE09C00202E
:1039640008460EF08BB900BF0EF078B90EF032B9EC
:103974000123024A43761370704700BF152B0120C0
:103984000022C16842610A70704700BF806A7047B4
:103994002DE9F041354C2368002B48D005460E46EE
:1039A40000293AD11A6818463149536805229847C4
:1039B400EB699BB12068202103681B689847D5F800
:1039C4001C802768B8F1000F09D0404633F080FD11
:1039D4003B680246414638465B68984727683B681F
:1039E4000522244938465B68984700230A2229693E
:1039F40020680CF041FA206805221F4903685B68BF
:103A0400984700230A22696920680CF035FA86B9C0
:103A14002068BDE8F0410CF013BA18460CF010FA17
:103A240020680722154903685B689847C0E7BDE82A
:103A3400F08120680222124903685B689847EE68A7
:103A440025684EB1304633F043FD2B6802463146BB
:103A540028465B68984725682B68284627211B68F9
:103A640098472068BDE8F0410CF0EAB944C800204A
:103A740060740020387400204074002058740020C2
:103A840048740020036910B50446E3B1C268D05CF1
:103A9400D118C8B101211048617601700021D154B8
:103AA400E06833F015FD0D4B6061186890B1036850
:103AB4003C220B495B6898470A4B20461978BDE8BD
:103AC4001040FFF765BFC16800230B70E06833F056
:103AD400FFFC606110BD00BF152B012044C800200D
:103AE4003C4D0020A7A60020037E10B504460BB170
:103AF400FFF7C8FF6069B0FA80F0400910BD00BF4D
:103B040038B5037E044653B1FFF7BCFF237E256915
:103B140013B12046FFF7B6FF6069281A38BD05695E
:103B24006069281A38BD00BF037E70B504460D468F
:103B34000BB1FFF7A7FFE46820464CB133F0C8FC93
:103B44002B680246214628465B68BDE8704018474A
:103B540070BD00BF037E10B504460BB1FFF792FFA2
:103B64000123E068237610BD037D30B5044683B09D
:103B74006BB104380190FFF785FF237DE56813B12D
:103B84000198FFF77FFF2069281A03B030BDC5688C
:103B94002069281A03B030BD70B5104D2B68DBB115
:103BA4001A6804462021184613689847E4695CB1F2
:103BB4002D68204633F08CFC21462B6802462846AB
:103BC4005B68BDE87040184728680A220449036806
:103BD400BDE870405B68184770BD00BF44C8002052
:103BE400584E00202DE9F04704461646A54A1F46C4
:103BF40008980023226018329DF8288062609DF89E
:103C04002420E061A360637684F82430227642B3F2
:103C1400B8F1010F25D0042923D19B4904209B4DE1
:103C2400012263610B709A4B62761A70C4E9031027
:103C3400286898B103682C2296495B689847204607
:103C4400FFF7AAFF286840F21312934903685B68E0
:103C54009847924B20461978FFF79AFE2046BDE814
:103C6400F087002E00F09B804B1EE66003332AD8B9
:103C74008B4B994228BF19464D1EB7F1000A2561A6
:103C840018BF4FF0010ABE4218BF4FF0000ABAF144
:103C9400000F25D1C4F814A086F800A007BB7B4D03
:103CA40001237B4A2868637613700028D6D0036802
:103CB40012227C495B6898472046FFF76DFF28680D
:103CC40033227949C2E7002A4ED0B8F1000F4BD015
:103CD400002900F0BC80304633F0FAFB0546CCE7FF
:103CE40005F5807030F092FD814600287ED030F0DA
:103CF40095FD4FF000097A1E12F8011F002968D0C3
:103D040009F10109A945F7D9BAF1000F00F0E080E3
:103D1400002365615E4A735501235C4D1370286866
:103D2400637600289AD003685B68B8F1000F00F04E
:103D340021812B225D4998472046584EFFF72CFFDE
:103D440028682E225A4903685B689847494600232D
:103D54000A2228680CF090F83178002940F00E818E
:103D64002046FFF715FE79E70023474A474D4849A7
:103D740013702868E260C4E9043301230B7063768E
:103D840000283FF46BAF036825224A495B689847D3
:103D94002046FFF701FF28682122474956E73B4D9B
:103DA4000123394A3A4928680B70666116706376B4
:103DB400C4E9032600283FF451AF036812223949AD
:103DC4005B6898472046FFF7E7FE286833223B49A3
:103DD4003CE7BAF1000F00F0C58000232046C4F888
:103DE400149006F809307355BDE8F0870123284A7A
:103DF400264D6061137030702868637600B30368E1
:103E0400122228495B6898472046FFF7C5FE2868B8
:103E140014222B4903685B6898474B460A222169A0
:103E240028680CF029F8286826493E2203685B6854
:103E340098471A4B2046C4F810901978FFF7A8FD4C
:103E4400114A00232046C4E90323BDE8F087012377
:103E54000F480E4D0C4A0370286861611170637637
:103E6400C4E9032100283FF4F9AE03682D22164962
:103E74005B6898472046FFF78FFE28682F22134976
:103E8400E4E600BFF876002040C8002044C80020C3
:103E9400152B0120644E0020944E0020A7A600207C
:103EA400FEFFFF7F545000209C50002060510020F2
:103EB4008C51002008500020305000206850002011
:103EC400D0500020E8500020A84F0020D84F0020F8
:103ED400314D0123314A28681370637600283FF47A
:103EE400BDAE036812222E495B6898472046FFF74F
:103EF40053FE286819222B4903682B4E5B689847A8
:103F0400534649460A2228680BF0B6FF2868274919
:103F1400132203685B689847317800293FF420AF87
:103F240028680BF08DFF28680722214903685B6825
:103F34009847286818221F4903685B689847D5F892
:103F44000080384633F0C4FAD8F8003002463946C7
:103F54005B68404698472868272103681B68984790
:103F64003178FDE630464A46394630F03FFFD4E921
:103F7400036532E7252210499847DDE628680BF0EF
:103F84005FFF286807220A4903685B689847286826
:103F94001B220A49D0E700BF44C80020152B01208A
:103FA4005450002028510020A7A60020BC50002017
:103FB400587400204451002008500020BC510020B7
:103FC4002DE9F047414C07469DF8209020689DF864
:103FD40024A0002855D01E460368154688465B6811
:103FE40006223B4998473846FFF7D6FD206803224E
:103FF400384903685B68984755EA06032ED0002DBC
:104004004CD0BAF1000F3ED12068222103681B680E
:1040140098472668284633F05BFA336802462946F7
:104024005B68304698472068222103681B689847DC
:1040340020680BF005FF20681322274903685B689A
:1040440098474146002320680A220BF015FF234BB2
:1040540038461978BDE8F047FFF79ABCB9F1000F6C
:10406400E6D02068272103681B68984720684946E2
:1040740003681B6898472068272103681B689847D2
:10408400D6E7BDE8F0872668284633F021FA2946AA
:104094003368024630465B689847C9E720680322C4
:1040A4000F4903685B6898472568304633F010FA77
:1040B4002B680246314628465B68984720680222EE
:1040C400084903685B689847B2E700BF44C800200A
:1040D400A44D00201474002020740020A7A6002002
:1040E400187400201C74002070B5134E336813B389
:1040F4001A6805460C461846104953680622984724
:104104002846FFF749FD30682E2103681B6898474D
:104114004CB13568204633F0DBF921462B68024662
:1041240028465B6898473068022205490368BDE861
:1041340070405B68184770BD44C80020A44D00203F
:1041440034740020037E2DE9F04104460E461546E2
:104154000BB1FFF797FC731C626900F09680B242C2
:10416400174680F095800123DFF844814A4963763D
:104174000B70D8F80030002B30D048492046FFF7A8
:10418400B3FFD8F800000722454903685B689847E5
:10419400002331460A22D8F800000BF06DFED8F84F
:1041A400000003223F4903685B6898472046FFF7F5
:1041B400F3FCD8F800000C223B4903685B6898477D
:1041C4000A2200236169D8F800000BF055FE374B32
:1041D40020461978FFF7DCFB6269174600239D42ED
:1041E4003FD90121324E2C48617601703168002993
:1041F40049D02A492046FFF777FF306807222D4926
:1042040003685B689847294600230A2230680BF04C
:1042140033FE30680322234903685B6898472046CD
:10422400FFF7BAFC30680C221F4903685B689847A3
:1042340000230A22616930680BF01EFE30680922EF
:104244001D4903685B6898470A2200233946306891
:104254000BF012FE154B20461978FFF799FB6269A3
:10426400D51B75B10132E3687919D21BD8191944E9
:10427400521B30F0BBFD6369E26800215B1B636184
:10428400D154BDE8F0811D46EBE700231746A6E7AD
:10429400931B3746A3E700BF152B0120CC4C00200D
:1042A400F44D0020C44A0020844C0020A7A600201E
:1042B40044C80020D44C0020DC4C00202DE9F047F9
:1042C400514C054616461F46DDF820809DF8249083
:1042D400DDF828A0FFF708FF206813224B49036884
:1042E4005B68984700230A22314620680BF0C4FD1E
:1042F4002B7E002B4AD1BAF1000F5CD1444E3178A9
:1043040000293ED020680BF09BFD2068072241491C
:1043140003685B68984757EA080313D1B9F1000FA3
:104324002ED020680F223C4903685B6898472068B8
:10433400272103681B6898472068494603681B685F
:10434400984718E020680F22334903685B68984750
:104354002068002F42D0036827211B689847D4F8AF
:104364000080384633F0B4F8D8F8003002463946B5
:1043740040465B6898472068272103681B68984774
:1043840031782846BDE8F047FFF702BB20680B22CE
:10439400224903685B689847711C0A22002320683D
:1043A4000BF06AFD206802221D4903685B68984788
:1043B400BAF1000FA2D020680F221A4903685B6883
:1043C400984751460A22002320680BF055FD2068C7
:1043D4001422154903685B6898478FE70368032232
:1043E40012495B6898472768404633F071F83B6888
:1043F4000246414638465B689847206802220C49C9
:1044040003685B689847BBE744C800202074002019
:10441400A7A6002058740020B074002078740020EF
:10442400847400208874002098740020187400207C
:104434001C74002070B5134E336813B31A68054614
:104444000C46184610495368082298472846FFF737
:10445400A3FB30682E2103681B6898474CB135686C
:10446400204633F035F821462B68024628465B681F
:1044740098473068022205490368BDE870405B68CC
:10448400184770BD44C800204C74002034740020C8
:104494002DE9F0411E460B7E0D460746144613B126
:1044A4000846FFF7EFFA3B7E13B13846FFF7EAFA06
:1044B4007B6944EA06021A4300F0AD80601C00F0F8
:1044C4009180711C00F0A180A64280F087800122B7
:1044D400DFF8688154497A760A706A76D8F8002041
:1044E400D2B152493846FFF7A5FFD8F800000B2295
:1044F4004F4903685B6898473846FFF74DFBD8F887
:10450400000013224B4903685B6898474A4B3846BE
:104514001978FFF73DFA7B699C4225D90122474C63
:1045240041497A760A706A762268002A71D03F4936
:104534003846FFF77FFF20680B223D4903685B681C
:1045440098473846FFF728FB206813223C49036844
:104554005B689847384B38461978FFF719FA7C6935
:10456400A642234628BF26469E4230D0A6422ED0DD
:104574002B7EA41B13B12846FFF784FA2B699C42B7
:1045840036D90123284A2D4E7B7613706B76336817
:10459400EBB126493846FFF7A7FD306812222949B6
:1045A40003685B6898472846FFF7F6FA30681322D9
:1045B400254903685B689847214600230A2230682E
:1045C4000BF05AFC1C4B28461978FFF7E1F900233D
:1045D400EA6828466B611370BDE8F08132462646CE
:1045E400144699E7721CF2D01C46A642F6D26EE736
:1045F400F9682246E868314430F0F8FBEB680022A1
:104604006C6128461A55BDE8F081A34209D21E46C2
:104614005DE71C46A4E7EB6828466A611A70BDE8AA
:10462400F08126461C469FE7152B0120104E0020E2
:104634001C4E0020284E0020A7A6002044C80020BD
:104644003C4E0020504E0020207400202DE9F04301
:10465400984683B0037E04460D4616469DF828907E
:104664009DF82C700BB1FFF70DFA0023EA686B611B
:104674001370237E13B12046FFF704FA6369002BFD
:1046840077D000238DF804808DF80530002E75D086
:104694003146E0682DF0FAFE0128024603D9B9F14B
:1046A400000F18BF012200212046FFF74BFDD4F86C
:1046B4001480B8F1000F56D03146E06831F0CAFDDD
:1046C400804518BF47F001070646002F51D02B69DB
:1046D40083425CD20123DFF8DC80304A63761370B6
:1046E4006B76D8F80030002B34D02D492046FFF7E4
:1046F400FBFCD8F8000012222A4903685B6898473B
:104704002846FFF749FAD8F800001322264903681F
:104714005B68984700230A223146D8F800000BF062
:10472400ABFBD8F800000C22204903685B6898476B
:10473400D8F800003246E16803685B689847D8F807
:104744000000272103681B689847194B20461978F5
:10475400FFF71EF9204632460021FFF7F3FC3846E6
:1047640003B0BDE8F08309EA0707384603B0BDE8A3
:10477400F0830027384603B0BDE8F08301AEE0685B
:1047840031462DF083FE0128024688D88BE7034684
:10479400294600222046FFF77BFEDBE7152B01208C
:1047A400F44A0020D04A002020740020E44A00206B
:1047B400A7A6002044C8002070B50F4D286810B18A
:1047C4000E4B1B7803B970BD0C460BF039FB2868FF
:1047D40007220B4903685B68984728680E22094939
:1047E40003685B6898472146286800230A22BDE8CD
:1047F40070400BF041BB00BF44C80020A7A60020B6
:104804005874002068740020037E2DE9F0410546A9
:104814000C4616460BB1FFF735F9002C57D0731C24
:1048240020463BD032F054FE6F69B7423AD201239E
:10483400464F474A6B7613703B68002B2BD0454993
:104844002846FFF751FC38680B22434903685B682C
:104854009847314600230A2238680BF00DFB38686C
:1048640003223E4903683E4E5B6898472846FFF79B
:1048740093F938680C223B4903685B689847696977
:1048840000230A2238680BF0F7FA317800293BD16B
:104894002846FFF77DF80020BDE8F0816F6932F00B
:1048A40017FE3E468319BB42F5D828B9F01BB0FA6F
:1048B40080F04009BDE8F081EB6802462146981972
:1048C4002DF0B4FCB0FA80F04009BDE8F08101237A
:1048D4001E4F1F4A6B7613703B68002BDBD01D49BB
:1048E4002846FFF701FC38681A221F4903685B68F1
:1048F400984731462846FFF75FFF194B2846197839
:10490400FFF746F82046C7E738680BF099FA38688D
:104914000722164903685B689847386810221449CF
:1049240003685B689847D7F80080204632F0D0FDD2
:10493400D8F80030024621465B68404698473868FC
:10494400272103681B6898473178A1E744C80020F1
:10495400152B0120AC4A0020B84A0020C44A00208C
:10496400A7A60020844C0020884D00205874002005
:10497400FC4D00202DE9F0471F46037E04460D46FA
:1049840016469DF820A09DF824900BB1FFF77AF805
:104994000023EA686B611370002E40D096F8008003
:1049A400B8F1000F1CD0237E13B12046FFF76AF83C
:1049B4006369EBB1B9F1000F07D0002231462046FC
:1049C400FFF722FF08B1002F3CD13246294620468A
:1049D400CDF824A008970023BDE8F047FFF736BEC2
:1049E40001231A4A1A4E637613706B76336823B91F
:1049F4004FF000084046BDE8F08720461549FFF710
:104A040073FB30682622144903685B689847134B8C
:104A140020461978FEF7BCFF4046BDE8F087012325
:104A24000A4A0B4F637613706B763B68002BDFD01A
:104A340008492046FFF758FB3868292208490368CB
:104A4400B046E2E74FF00108D4E700BF152B012080
:104A540044C80020F44A0020144D0020A7A60020DA
:104A6400E84C002070B50B4D2B688BB119680446D7
:104A7400062218464B68084998472046FFF78CF8E9
:104A84002868032205490368BDE870405B6818473D
:104A940070BD00BF44C80020A44D00201474002041
:104AA4002DE9F0431E46037E85B005460F461446A5
:104AB4000BB1FEF7E7FF6B6956BB03EB040857B372
:104AC400002C4CD007F1FF3E4FF0000C1EF8012FD4
:104AD4001AB10CF1010C6445F8D2A44548D32A69F3
:104AE40090457FD90123624A6B761370002E6CD1F6
:104AF400604B1B6843B13B4642465F4928460294DB
:104B0400CDE90066FFF7DAFB284605B0BDE8F0837F
:104B1400A046002FD4D10123DFF85881544A6B7684
:104B24001370D8F8003083B1002E76D02846FFF7F2
:104B340099FFD8F800001A22504903685B68984727
:104B44004F4B28461978FEF723FF002EDCD00023B4
:104B5400EA6828466B61137005B0BDE8F083002E47
:104B6400D2D0EB686C611C70284605B0BDE8F083B8
:104B740001233F4ADFF8FC8013706B76D8F80030CD
:104B8400002BE2D0002E43D02846FFF76BFFD8F865
:104B9400000008223B490368DFF8E4905B6898470B
:104BA400214600230A22D8F800000BF065F9D8F852
:104BB40000003549142203685B68984799F800108F
:104BC40081BB2846FEF7E4FEBFE700243A4641468F
:104BD40028462346CDE90044FFF7F2F9EB686C61FF
:104BE4001C70C1E726B10023EA686B6113706B691E
:104BF400E86822463946184430F0F8F8EB68002299
:104C04002846C5F8148003F8082005B0BDE8F083F1
:104C140019492846FFF768FAB9E717492846FFF704
:104C240063FA86E7D8F800000BF00AF9D8F8000018
:104C34000722164903685B689847D8F800001022D9
:104C4400134903685B689847D8F80040384632F047
:104C54003FFC2368024639465B6820469847D8F8EB
:104C64000000272103681B68984799F80010A8E7FB
:104C7400152B012044C80020C0740020884D00205A
:104C8400A7A600209C4C0020A84C002058740020AB
:104C9400FC4D00202DE9F0474FF0000C84B006468F
:104CA4000F461546D0F8148001F1FF3E1EF8014F5F
:104CB4004CB30CF1010C6545F8D208EB05023369DD
:104CC4009A4214D9464B47481968012303707376F6
:104CD400002944D0002430463B4643490094CDE9A2
:104CE4000145FFF7EBFA204604B0BDE8F087002346
:104CF4002A4639463046FFF7D3FE7069A0EB080018
:104D040004B0BDE8F0876545D7D90123354ADFF8FB
:104D1400D08013707376D8F8003003B3324930462C
:104D2400FFF7E2F9D8F80000082230490368DFF8F9
:104D3400D4A05B68984723460A222946D8F8000085
:104D44000BF09AF8D8F800002949172203685B6829
:104D540098479AF8001031B93046FEF719FE002042
:104D640004B0BDE8F087D8F800000BF069F8D8F873
:104D7400000007221F4903685B689847D8F80000C1
:104D84000F221D4903685B689847D8F80000032286
:104D94001A4903685B689847C5B105F1FF393C4679
:104DA4003D4414F8011B00230A22D8F800000BF03C
:104DB40063F8D8F80000E11B036801391B68494512
:104DC4002CBF20212C219847AC42EAD1D8F800000E
:104DD40002220B4903685B6898479AF80010BBE706
:104DE40044C80020152B0120304C00209C4C00208E
:104DF400384C002058740020B0740020504C00201F
:104E0400544C0020A7A60020037E70B505460E462C
:104E140014460BB1FEF736FE34B12246314628461D
:104E2400BDE87040FFF736BF204670BD037D0438EF
:104E340030B50D4683B014461BB10190FEF722FE37
:104E4400019834B12246294603B0BDE83040FFF74B
:104E540021BF204603B030BD037EF0B5044685B0C3
:104E64000E4615460BB1FEF70DFE9EB115B127692E
:104E7400002F35D0002303A88DF80C608DF80D3079
:104E840032F026FB2B46024603A92046FFF708FE14
:104E940005B0F0BD01231A4E1A4A637613703368C5
:104EA4007BB1CDB918492046FFF71EF930680822B6
:104EB400164903685B689847154B20461978FEF736
:104EC40067FD35B10023E26820466361137005B0C5
:104ED400F0BD204605B0F0BD2046FFF7C3FDE5E771
:104EE4000121084A3B462046CDE9006711703A4645
:104EF4006176FFF765F8E368676120461F70C7E7CE
:104F040044C80020152B0120C0740020C04C002090
:104F1400A7A60020037E70B5054684B00C460BB1ED
:104F2400FEF7B0FDFCB1D5E9043201329A4212D940
:104F34001B4901231B4809686B760370D1B1002417
:104F44002846194923460094CDE90144FFF7B6F9F0
:104F5400204604B070BD002221462846FFF77CFF9E
:104F6400012004B070BD01230D4E0E4A6B76137000
:104F7400336813B9002004B070BD28460A49FFF70E
:104F8400B3F830680522094903685B689847084B01
:104F940028461978FEF7FCFC204604B070BD00BF1B
:104FA40044C80020152B0120304C0020584C002010
:104FB400A7A60020A0F10400FFF7ACBF2DE9F04F35
:104FC40085B01F46002390469DF840B004465361C7
:104FD4000E46D268BBF1010F9DF8385013702BD9DF
:104FE400119B4BBB0123DFF8B892A74A4376137099
:104FF40088F81930D9F80030D3B1A449FFF774F810
:10500400D9F800A03C22A249DAF8003050465B6887
:10501400984750460AF014FFD9F800904C229D4955
:10502400D9F8003048465B68984748460AF008FFBC
:10503400CDF844B04FF0000B237E002B00F091809C
:105044002046FEF71FFD2369012B40F28E80237E4C
:1050540013B12046FEF716FD00238DF80C508DF891
:105064000D30002F00F002813946E0682DF00EFA71
:10507400002102462046FFF765F80023A362119B36
:1050840023B194F82430002B00F0F280DFF8209252
:10509400DFF820A233681B694B4540F0D7800CF041
:1050A40099FD002800F09E80237E6569002B00F0A6
:1050B40092802046FEF7E6FC23699D4280F09280B0
:1050C400227EA56A1AB12046FEF7DCFC23699D42C4
:1050D40080F0888033685B69534540F0BF800CF0F2
:1050E400BDFD0546A36A0133A362002D00F089804B
:1050F400BBF1000F08D03368E8B2674A1B689342DB
:1051040040F0B0800CF0BAFD119B2BB1012384F860
:105114002430624B1B6823620F9B1A78002A00F02C
:1051240098802946384630F0E3FF0028B2D00F9B20
:105134001B78002B40F013813A4641462046EDB2DD
:10514400CDE90033FFF716FC0246002854D145B3DD
:10515400294601252046FFF77FFE284605B0BDE815
:10516400F08F2369012B3FF677AF4D4D012346495C
:105174002A6863760B7088F819303AB3204643499D
:10518400FEF7B2FF2C6842224649236820460025D8
:105194005B68984720460AF053FE284605B0BDE8F0
:1051A400F08F237E002B00F0CB802046FEF76AFCB4
:1051B400237E656913B12046FEF764FC2369AB4284
:1051C40000F0948094F82450002D75D100252846D1
:1051D40005B0BDE8F08F23699D4203D2A56A9D42C4
:1051E400FFF478AF00233A4641462046CDE9003328
:1051F400FFF7C0FB0028D4D00125284605B0BDE840
:10520400F08F274D0123204A28686376137088F8AD
:10521400193000283FF43EAF0AF012FE2868092234
:10522400214903685B6898472046FEF7B5FC2D6862
:105234001A221E492B6828465B68984728460AF0BC
:10524400FFFD33681B694B453FF429AF304698474F
:1052540027E7E9B22046FFF7FFFD62E730469847AB
:1052640005463FE70146304698474DE703AFFBE666
:105274000F9B1B78002B3FF409AF084B1B6823627C
:10528400012384F8243001E7152B0120004B002072
:10529400104B0020504B00209119000040290120A0
:1052A40044C80020A04B0020084C0020144C0020CF
:1052B4009D190000991900002F4B226A1B689B1A44
:1052C400119A934282D9002384F824306369002B15
:1052D40038D00F9B1B78002B39D1204601243A4645
:1052E400414601930094FFF745FB70E7234D0123EA
:1052F400234A28686376137088F81930A8B10AF035
:105304009FFD286809221F4903685B689847204667
:10531400FEF742FC28681C49222203685B68984710
:105324001A4B20461978FEF733FB0025E268012367
:105334006561284615700F9A137005B0BDE8F08FAB
:1053440065693BE70F9B1B78002B3FF43FAF0023BD
:10535400E26863611D4613700F9A137037E70022E9
:10536400E3680F98E9B215460270204662611A702C
:10537400FFF772FD2BE700BF4029012044C800203D
:10538400152B0120084C0020E44B0020A7A6002088
:1053940070B584B005461C469DF8246053B31C7850
:1053A400BCB901231B4E1C4A437613703368EBB11E
:1053B4001A49FEF799FE30682622194903685B688A
:1053C4009847184B28461978FEF7E2FA204604B0AD
:1053D40070BD0A9C089DCDE902640024CDE9004516
:1053E400FFF7ECFD0446204604B070BD00242046BF
:1053F40004B070BD0123074E074A43761370336827
:10540400002BF3D00549FEF76FFE306829220649C8
:10541400D4E700BF44C80020152B0120004B002016
:10542400144D0020A7A60020E84C00202DE9F047E9
:1054340084B0002514464FF0010A1A460C9B0E4610
:10544400019521460093CDF808A00446154BDDF8DC
:1054540034909DF838809DF83C70FEF7C3FB124BE6
:105464004A46CDF800A02146E6623046C4F83090A2
:1054740001952360183363602B46FFF77BFAE06ADB
:10548400FEF77EFA7F1B109B204618BF012784F885
:105494003480A36384F83570E586C4E9105504B0FC
:1054A400BDE8F087B4560020487800202DE9F0418B
:1054B400056C84B0002D73D00746826B90F83530AC
:1054C400044617F8348F2946CDE901320246036BAE
:1054D4000097C06AFFF75CFF051E0646E06A18BF26
:1054E4000125FEF753FA636C18446064B8F1000FA9
:1054F4002BD194F83430002B4ED0AEB9A16B94F874
:105504003520236B0097CDE901212246216CE06A06
:10551400FFF73EFF0546E06A003D18BF0125FEF790
:1055240035FA636C184460642B480AF089FC2B4BF1
:1055340043222B49186803685B68984794F836300F
:1055440003B3284604B0BDE8F081002EF6D194F8E8
:105554003450002DF2D0A16B94F83520236B0097C2
:10556400CDE901212246216CE06AFFF711FF0546CF
:10557400E06A003D18BF0125FEF708FA636C184481
:105584006064DBE72046FEF7AFFA002818BF002569
:10559400284604B0BDE8F081002E08BF0025CDE701
:1055A4000E4C0D480AF04CFC206843220D49036858
:1055B4005B68984708480AF043FC07480AF040FC37
:1055C40020680368DB68984741F2883008F08AFE57
:1055D400284604B0BDE8F081E49C0020E09C002053
:1055E400B46D0020706D0020F8B504460023C06A35
:1055F40084F837301D4D1E4E1E4FFEF7C1F9206C46
:1056040003681B69AB421CD10CF0E4FAE0B1206CD6
:1056140003685B69B34223D10CF020FB10F0FF0058
:105624001AD094F83530002BE9D0226C13681B682B
:10563400BB4217D10CF022FB206C03681B69AB4200
:10564400E2D098470028E2D10123204684F8343080
:10565400BDE8F840FFF72ABF2046FEF789F9CEE7F8
:105664009847DBE7014610469847C8E79D190000B4
:10567400991900009119000010B490F83720002403
:10568400C0E9101412B95DF8044B70475DF8044B7F
:10569400FFF7AABF036D0BB101207047406D0038BE
:1056A40018BF0120704700BF704700BF10B5044603
:1056B400806D18B12FF0B2F80023A365236D2BB1D0
:1056C40004F11800BDE8104005F08ABD636D002B9D
:1056D400F6D110BD012BF0B5054695B03DD0022B97
:1056E40040F2022001F104010CBF03460023684686
:1056F40005F090FE129B002B38D05C2000260AF0A7
:1057040023F9214B04AF0446C0E90036019B394616
:10571400183040F80C3C1D4B40F8103C029B40F8FC
:10572400083C9DF80C3000F8043C05F017FD184BBC
:105734004FF47A72A665A360164B6E602B606368A3
:105744002E730133AA602C616360134B38460093B7
:1057540005F046FD284615B0F0BD44F2022304319D
:10576400684605F057FE129B002BC6D1139B002BF5
:10577400C3D14FF47A71074A04AF2B732A602B61AB
:10578400C5E90131E1E700BF087900206479002010
:10579400E4780020B87800202877002010B504466B
:1057A400806D00B110BD4FF480702FF02FF8A0650C
:1057B400B0B10022236D02703BB101464FF48072F8
:1057C400184605F05DF9A06D10BD636D002BE9D09E
:1057D40001464FF48072184602F000FEA06D10BD21
:1057E400014B1846A36510BD1A2B012038B5056D71
:1057F4006DB10BB1002038BD1146284603F07CFE84
:105804000028F7D02846BDE8384004F017B8446DA6
:10581400002CEFD0204601F033FA0028EAD02046CD
:10582400BDE8384002F0A6B88A79A2F150031B06FD
:1058340022D402F26C72F0B54B7985B0046D013359
:105844000D798E784F78DBB209784CB120460196F9
:105854000095CDE90271022103F084FF05B0F0BD8B
:10586400406D0028FAD001960095CDE9027102211D
:1058740001F0C4FF05B0F0BD0020704710B5044628
:10588400006D80B1037813F0700F00D110BD0021BA
:1058940003F032FE606D0028F8D000220023BDE83A
:1058A400104001F0EDB9606D0028EFD090F8313070
:1058B40013F0500FEAD000220023BDE8104001F09D
:1058C400DFB900BF036D10B50C4682B02BB30DF1E8
:1058D400060201A9184603F0B5F938B3BDF804303F
:1058E400BDF8062053EA020120D0C2F3451C02F0A1
:1058F4001F00D20AC3F34311400084F801C0A27010
:105904005A0A013903F01F0302F5EA6220700120EC
:1059140061712371A27102B010BD406D30B10DF1FF
:10592400060201A901F052F80028D7D1002002B0E4
:1059340010BD00BF036D10B50C4682B02BB30DF142
:10594400060201A9184603F06DF938B3BDF8043016
:10595400BDF8062053EA020120D0C2F3451C02F030
:105964001F00D20AC3F34311400084F801C0A2709F
:105974005A0A013903F01F0302F5EA62207001207C
:1059840061712371A27102B010BD406D30B10DF18F
:10599400060201A901F008F80028D7D1002002B0BE
:1059A40010BD00BF10B5D0F884448EB00A4644B18F
:1059B400002321466846009303F002FB80B90EB031
:1059C40010BDD0F8881441B1234668460C9401F008
:1059D40015FC50B900200EB010BD08460EB010BD25
:1059E400684603F041FD0EB010BD684601F0C4FCEA
:1059F4000028EFD0E3E700BF70B5D0F884548EB030
:105A040016465DB105F5896500230A4668462946B0
:105A1400009303F053FA90B90EB070BDD0F8880427
:105A24000028F9D000F589640A462B4668462146C9
:105A34000C9501F067FB48B900200EB070BD3246EA
:105A44002946684603F01AFC0EB070BD3246214662
:105A5400684601F0E5FD0028EED0DDE710B5D0F88A
:105A640084448EB00A464CB10020012321460090A4
:105A7400684603F0A5FA80B90EB010BDD0F88814BA
:105A840041B1012368460C9401F0B8FB50B90020E1
:105A94000EB010BD08460EB010BD684604F096FB6B
:105AA4000EB010BD684601F00DFC0028EFD0E3E70E
:105AB40030B5D0F884448FB00A464CB10025012398
:105AC40004F589616846009503F082F90FB030BD92
:105AD400D0F888040028F9D000F5896101236846CC
:105AE4000C9401F01FFE0FB030BD00BF10B5D0F80C
:105AF40084448EB00A463CB1002321466846009394
:105B040003F05EFA0EB010BDD0F8881431B123460C
:105B140068460C9401F072FB0EB010BD08460EB03E
:105B240010BD00BF006990B10368154A1B69934218
:105B340025D1036D63B1187810F0080007D0D86937
:105B44005B69C01A48BF6FF0004070471846704741
:105B5400436D002BFAD093F8310010F00800F6D012
:105B6400186919685A69401A5B6862EB0303B0F15B
:105B7400004F73F10003EAD36FF0004070471847F9
:105B840071410000036973B11A68084952698A4275
:105B940007D1186D08B103F03BBB586D18B101F083
:105BA40059B8184610474FF0FF3070478D3E00003B
:105BB400036963B11A68074992698A4208D1186D6A
:105BC40008B103F0C9BD586D08B101F0A1BC70471C
:105BD400184610474D40000000B5006983B08DF8A9
:105BE400071060B10368104ADB68934215D1036D56
:105BF40043B101220DF10701184603F059FE03B029
:105C04005DF804FB406D0028F9D001220DF1070175
:105C140001F022FF03B05DF804FB01220DF107013E
:105C2400984703B05DF804FB75400000036923B393
:105C34001968134A10B58C6882B0944214D1186D57
:105C440048B101220DF1070103F00EFA90B19DF85D
:105C5400070002B010BD586D0028F8D001220DF1E4
:105C6400070100F027FFF1E701220DF107011846B3
:105C7400A047EBE74FF0FF30EBE74FF0FF30704702
:105C8400213F0000036D13B1586900217047436D33
:105C940013B1D3E90001704718461946704700BF95
:105CA400036D13B1D86900217047436D13B1D3E973
:105CB4000401704718461946704700BFF0B595B007
:105CC40000224FF47A74244F1831054604A88DF845
:105CD4000C200097CDE90124CDE9122205F0ECFA5D
:105CE400129B002B2DD05C20002609F02DFE019B79
:105CF40004464660C36004A9029B183040F8083C7F
:105D04009DF80C3000F8043C144B40F8183C144B3C
:105D140040F8103C05F022FA124B4FF47A72A76057
:105D24002B606368A66501336E602E73AA602C61D4
:105D340063600D4B04A8009305F052FA284615B091
:105D4400F0BD139B002BCED1064A2B732A602B6126
:105D5400C5E90134EDE700BFE478002008790020AC
:105D640064790020B878002028770020F8B505462B
:105D740090F8D00408B90146F8BDD5F88434002B56
:105D84004CD0DC69D5F89004013C002854D0036859
:105D9400DB6B9847E0B1D5F8900478B303681B6CCB
:105DA4009847A8B9D5F8900440B3036801215B6C07
:105DB4009847074610B3D5F8840458BBD5F88864CF
:105DC40033466EB9D5F8900490B900200146D3E764
:105DD400D5F88404E8B9D5F88834002BF5D0074603
:105DE400184602F073FD06463FB1D5F8900428B179
:105DF400036800215B6C984700B1A41BD5F8843478
:105E0400FBB19B794FF40071994089B2A1FB040165
:105E1400F8BD002705F02CF80646E5E7D5F88834E8
:105E2400D5F89004B3B1D3F830440028AFD1184664
:105E340002F04CFD0646E0E7184605F019F8064660
:105E4400DBE7D5F88864002EBFD0D6F83C14A1FB5C
:105E54000401F8BD0028B8D01C4698E7036D13B1BF
:105E6400184603F0D5B9406D08B100F0F3BE4FF009
:105E7400FF307047836C13B1184603F0C9B9C06C86
:105E840008B100F0E7BE4FF0FF307047036D33B147
:105E94001B7813F0700F14BF012000207047406D71
:105EA40030B190F8313013F0500F14BF01200020AE
:105EB400704700BF90F8D03463B1D0F8843463B134
:105EC4009A794FF40070D9699040013980B2A0FBEF
:105ED40001017047184601467047D0F8880400282D
:105EE400F9D0D0F83C14D0F83004A1FB000170477D
:105EF400036D13B1184603F0B7B8406D08B100F054
:105F0400D9BD4FF0FF307047836C00B583B063B1E7
:105F140001220DF10701184603F0A6F801280CD15F
:105F24009DF8070003B05DF804FBC06C28B10122A2
:105F34000DF1070100F0BEFDF0E74FF0FF30F1E78F
:105F44002DE9F043D0F890548DB04DB198462B68AC
:105F540004462846DB699847B0F5405F064604D8F6
:105F6400002630460DB0BDE8F0834FF400702EF0EB
:105F74004DFC07460028F3D00DF10409B6F1806FFB
:105F840002464346294648462ED901F06BFF064691
:105F940038462EF043FC002EE2D02B682846271DFD
:105FA4001B6A984794F8C034FF2B21D0D4F8C4342A
:105FB40004F5946502932846D4F8C8340393B4F8DE
:105FC400C034ADF8043099E80E0007F0C7FA94F82D
:105FD400B134C4F89054002BC3D101232946384668
:105FE4001A4605F0A5F9BCE704F008FC0646CFE71D
:105FF40004F2944594F8CC14284605F0BFFF2846D3
:10600400C4F8905405F0B0FA0028AAD10123D4F8BA
:10601400901438461A4605F08BF9A2E7036D13B1C4
:10602400184603F099BB406D08B101F071BA70478E
:10603400836C13B1184603F08FBBC06C08B101F038
:1060440067BA7047036D13B1184603F031BC406D55
:1060540008B101F001BD7047836C13B1184603F019
:1060640027BCC06C08B101F0F7BC704700B5836C65
:1060740083B08DF8071043B101220DF107011846D2
:1060840003F016FC03B05DF804FBC06C0028F9D0E3
:1060940001220DF1070101F0DFFC03B05DF804FB00
:1060A4008A79A2F150031B0622D402F26C72F0B575
:1060B4004B7985B0046D01330D798E784F78DBB25E
:1060C40009784CB1204601960095CDE9027104216E
:1060D40003F048FB05B0F0BD406D0028FAD00196EE
:1060E4000095CDE90271042101F088FB05B0F0BDF3
:1060F40000207047836C53B1187810F008000DD05D
:10610400D8695B69C01A48BF6FF000407047C36C20
:10611400A3B193F8310010F0080000D1704718695A
:1061240019685A69401A5B6862EB0303B0F1004FC7
:1061340073F10003F2D36FF0004070471846EDE7A7
:10614400036D53B1187810F008000DD0D8695B695D
:10615400C01A48BF6FF000407047436DA3B193F875
:10616400310010F0080000D17047186919685A69A5
:10617400401A5B6862EB0303B0F1004F73F1000354
:10618400F2D36FF0004070471846EDE70369D3B1CE
:106194000E4810B41C68E46884420FD1186D18B11D
:1061A4005DF8044B03F084BB586D18B15DF8044BE3
:1061B40001F052BC00205DF8044B7047184623469A
:1061C4005DF8044B18470020704700BF754000007D
:1061D40038B504460C4B806D236018B12EF01EFBBD
:1061E4000023A365236D04F118054BB1284604F080
:1061F400F7FF064B2846A36004F0F2FF204638BDA3
:10620400636D002BF2D1F4E7087900202877002091
:1062140038B504460E4B806D236018B12EF0FEFA9B
:106224000023A365236D04F118056BB1284604F01F
:10623400D7FF084B2846A36004F0D2FF20465C2118
:1062440009F086FB204638BD636D002BEED1F0E7E4
:10625400087900202877002070B5264B044605698C
:106264000360002D32D06E68013E6E6076BB2B68F1
:10627400214ADB6A934233D1A86D10B12EF0CEFAD5
:10628400AE652B6D43B305F1180004F0A9FF256931
:10629400E5B12B68194A5B68934228D1184BA86D65
:1062A4002B6018B12EF0BAFA0023AB652B6D05F103
:1062B4001806C3B1304604F093FF124B3046AB606E
:1062C40004F08EFF5C21284609F042FB204614218D
:1062D40009F03EFB204670BD6B6D002BD3D1D6E791
:1062E40028469847D3E76B6D002BE3D1E5E72846B2
:1062F4009847EBE7B8780020DD3600004142000003
:10630400087900202877002030B4029C11469C466E
:1063140034B1012C1CD0022C0ED0002030BC7047AC
:10632400056DF5B14FF0FF33934274EB0C04F4D3D5
:10633400284630BC03F0E0B8026D0AB3D36959189B
:106344004CF10003002BE8D1104630BC03F0D4B864
:10635400026D62B1536959184CF10003002BDCD172
:10636400F2E7406D0028D8D030BC00F089BC406D05
:106374000028D2D0D0E900238A184CEB0303F3E7BA
:10638400406D0028C9D0D0E9042330BC8A184CEBF6
:10639400030300F075BC00BF70B5244B04460569C7
:1063A4000360002D32D06E68013E6E6076BB2B68B0
:1063B4001F4ADB6A93422FD1A86D10B12EF02EFA3A
:1063C400AE652B6D23B305F1180004F009FF2569B0
:1063D400E5B12B68174A5B68934224D1164BA86D2C
:1063E4002B6018B12EF01AFA0023AB652B6D05F162
:1063F4001806A3B1304604F0F3FE104B3046AB60F0
:1064040004F0EEFE5C21284609F0A2FA204670BD95
:106414006B6D002BD7D1DAE728469847D7E76B6D29
:10642400002BE7D1E9E728469847EFE7B878002042
:10643400DD36000041420000087900202877002062
:10644400F0B5D0F8906485B00446002E42D090F8A0
:10645400D05490F8D13485B1FE2B63D094F8D20493
:1064640027283DD93368694630469B6C98470546D2
:10647400284684F8D05405B0F0BDFE2B26D090F801
:10648400D204272849D994F8C034271DFF2B2DD0D6
:10649400D4F8C43404F59466D4F8C824019330467F
:1064A400B4F8C0340292ADF800306B460ECB07F05E
:1064B40055F894F8B134C4F8906463B901233146B3
:1064C40038461A4604F034FF054604E01F4B9B6827
:1064D4009B03D8D40025284684F8D05405B0F0BDD9
:1064E40007F0A8FF051E18BF0125F4E704F294463F
:1064F40094F8CC14304605F041FD3046C4F890645D
:1065040005F032F80028E6D10123D4F89014384677
:106514001A4604F00DFF0546DDE707F08BFF00285F
:10652400B1D1D7E7336830465B6D9847421C0346C8
:1065340094D00028CFD194F8D124FE2ACAD10321C3
:1065440026201D4607F088FFC5E700BF00800042F3
:1065540018484FF0290C184A0023184910B4C0F801
:106564009424072280F8B1C44FF0FF0CC0F8A8149B
:106574004FF47F41124CC0F8AC24124AA0F8D01456
:10658400A0F89C3480F8B53480F8CC3480F8D2C4B8
:106594000460C0F8A0240C490C4A5DF8044BC0F810
:1065A4008434C0F88834C0F8903480F8BC341EF0C9
:1065B400BBBE00BF18B40020DC79002000093D00F8
:1065C40088790020D8770020D9360000049D002067
:1065D40030B5037883B0DC071DD50446406804F168
:1065E40010020368E16801925B6A9847019A0546C4
:1065F400A8B12378990708D56068D4E90231194411
:1066040003685B6A984750B1237823F00103284656
:10661400237003B030BD0125284603B030BD0025EA
:10662400284603B030BD00BFF8B543680BB3C36858
:1066340004460F4615468B4206D110F8103B05F070
:1066440003052B432370F8BDFFF7C2FF88B16B0726
:1066540005D504F1100630460023E760EFE76068D3
:1066640004F110063946036832461B69984700282E
:10667400F1D10020F8BD00BF10B50446808982B076
:1066840018B10023A38102B010BDD4E901318B42BB
:10669400F9D201AA184600F0B7F880B1019B6060F6
:1066A400B3F5803F01D298B2EDE7980AC3F309032A
:1066B400A0F52150A3F5105380B2A381E3E74FF670
:1066C400FF70E0E7B1F5807F21D810292ED8402350
:1066D4004FF0200CB2FBF3F1B1F5806F20D203FB35
:1066E400112300B5B2FBFCFEB3FBFCF30CFB1E2232
:1066F4004FEA910CDBB201322CF03F0CC9B20370AB
:1067040042EA0C028170D2B242705DF804FB3F236E
:106714009C46802910D9B1F5FC7F0FD81B01D9E71D
:10672400FF21FE234170037081707047202916D821
:1067340080234FF0200CCDE7DB00CBE7B1F57C7F65
:1067440004D9B1F5FC6F03D89B01C3E75B01C1E732
:10675400B1F57C6F94BFDB01C3EB0323BAE72023BD
:106764009C46D6E77F28A2EB010205D812B10A465F
:1067740002F8010B10467047B0F5006F0FD2012AE2
:1067840040D94FEA901C00F03F030A466CF03F00EA
:1067940063F07F0302F8020B10464B707047B0F5AC
:1067A400803F16D2022A2DD9C0F3851C00F03F0386
:1067B400CA1C63F07F0300B54FEA103E6CF07F0003
:1067C4008B706EF01F0E4870104681F800E05DF883
:1067D40004FB032A16D94FEA904CC0F30532C0F3E8
:1067E400851300F03F0062F07F026CF00F0C63F041
:1067F4007F0360F07F004A700A1DC87081F800C0F2
:106804008B70B7E70022B5E788423DD2034610B447
:1068140090F900001C7800282DDA04F0E000C0286C
:1068240034D004F0F000E02834D004F0F800F0286C
:1068340026D104F0070404201844884220D80133E8
:1068440013F8011B01F0C00C01F03F01BCF1800FF3
:1068540041EA841414D18342F2D1A4F180010F4B94
:1068640099420DD8A4F55843B3F5006F08D31460CA
:106874005DF8044B7047581C14605DF8044B704776
:1068840000205DF8044B70470020704704F01F049B
:106894000220D1E704F00F040320CDE77FFF1000AE
:1068A4007E283ED94FF0350C002330B4284C04E048
:1068B40034F82120824220D80B46ACEB0302012A93
:1068C40003EB5201F4D89BB234F82320904216D241
:1068D4004B2400231F4D04E035F8212082421ED8AA
:1068E4000B46E21A012A03EB5201F5D89BB235F8A4
:1068F400232082421FD030BC70478C46DDE704EB76
:106904008304821AE3789A42E2DA94F90230012B82
:1069140016D0D3B19BB2034430BC98B270470C4636
:10692400DFE7A0F16103192B8CBF00230123A0EB47
:10693400431398B2704705EB8305688830BC7047F1
:1069440002F00102831A98B2D5E74EF2A033E2E7CF
:10695400D44900204047002070B500F1240384B0DE
:106964008C46044601AD164693E8070085E8070007
:106974004FEA4C122946206A01F0C4FE012806D1D0
:1069840032462946206A01F0A1FE04B070BD002001
:1069940004B070BD10B5044600F0BAFD002384F8BD
:1069A400313084F8333010BD38B514460D4600221A
:1069B40000F12401006A01F089FE034620B14289F6
:1069C40001202A801B89238038BD00BF38B51446B6
:1069D4000D46002200F12401006A01F077FE03460F
:1069E40020B1C28901202A809B89238038BD00BF41
:1069F40038B50D4690F8311009B1002038BD382261
:106A040004462EF08FFA012340222562184684F8AA
:106A1400333084F8312038BDF0B40D46097820298C
:106A240003D115F8014F202CFBD0156095602C780C
:106A34002F2C11D084B16E1C3C2C1D4F35462AD806
:106A4400212C12D804F1FF3CBCF11E0F16D80020F3
:106A5400F0BC704715F8014F202CFBD02F2CF9D037
:106A64001D601146F0BC01F01FBDA4F1220C5FFAB9
:106A74008CFC27FA0CFC1CF0010FE8D12E2C01D061
:106A8400202C0DD116F8014B002CE5D02F2CE3D08F
:106A94003C2C3546D4D95C2CD9D003D97C2CD6D007
:106AA4009660EFE73E3C012CFAD80020F0BC70471A
:106AB400012100052DE9F04F90F8333083B00546ED
:106AC400DC0774D558060F46904640F1B080D5E9EE
:106AD4000023D5E9041018EB020443F10003A1429A
:106AE40070EB0303C0F0A980B8F1000F5BD04646F9
:106AF40005F11809D5E90032D5F820A0DAF83844B0
:106B04001C40C4F3080B002C70D1134370D195F8CA
:106B140031305A064CBFDAF83424EA69AA619AF88B
:106B24004504023ADAF82C14630A824001EB54213A
:106B34001144BBF1000F45D1B6F5007F42D3DAF81A
:106B44001C2291423ED0B6F5806F58D34FF0010B12
:106B54000BFA00FBABEB030B730A9B4528BF9B4668
:106B640091424FEA4B240AD801EB0B039A4206D216
:106B74000AF504700191FFF72BFD0199B8B1DAF819
:106B840014025B460268D2F814A03A46D04770B1AA
:106B940023462744D5E900125B1842F10002361B54
:106BA400C5E90032A8D1404603B0BDE8F08F95F89E
:106BB40032304FF0FF3043F0020385F8323003B037
:106BC400BDE8F08FCBF5007400220AF50470B442DE
:106BD40028BF3446FFF728FD0028E8D000EB0B015E
:106BE4002246384608F016FE2346D2E7AA6996E7FD
:106BF40095F833305B060ED5AA6901328EE7DAF8D0
:106C040014023A4603681B6998470028CFD04FF412
:106C140000731C46BDE74A465046A96901F0B4FD1D
:106C24000028C4DB0CD0D5F820A0AA6977E795F832
:106C3400313019077FF558AF49E7A1EB020853E754
